:020000000A28CC
:10000800FE00030EF1000A08F200D9280B2855213A
:10001800FA00A801A901AA01AB01F801F9018301BD
:10002800482983120313A101F41F1B281C28232825
:10003800F309F409F30A0319F40AA101A10AF61F46
:10004800262827283028F509F609F50A0319F60A9B
:100058000130F7007708A106A201A3017308740410
:100068000319372838286F28A001A00A462801302C
:100078000310F30DF40DFF3E031D3C280130F7007B
:100088007708A007F41F49284A283B2801300310A5
:10009800A20DA30DFF3E031D4B2874087602031D15
:1000A800572873087502031C5A285B2862287308AE
:1000B800F5027408031CF603F6022214013003103B
:1000C800F40CF30CFF3E031D63280130A002031D4E
:1000D8006E286F284A28210803197328742879285C
:1000E800A209A309A20A0319A30A2308F4002208F3
:1000F800F300080083120313A101F61F8428852842
:100108008C28F509F609F50A0319F60AA101A10ACE
:10011800F41F8F2890289528F309F409F30A031986
:10012800F40A7308740403199A289B28CA28A001A2
:10013800A00AA92801300310F30DF40DFF3E031D9A
:100148009F280130F7007708A007F41FAC28AD28D6
:100158009E2874087602031DB32873087502031CD1
:10016800B628B728BD287308F5027408031CF603DF
:10017800F60201300310F40CF30CFF3E031DBE28F9
:100188000130A002031DC928CA28AD282108031977
:10019800CE28CF28D428F509F609F50A0319F60A56
:1001A8007608F4007508F30008000B1DDC28DD282C
:1001B8001B290B1106308312031381000130F00054
:1001C8007008AB060130F0007008AA0732302A0226
:1001D800031CEF28F0280029AA0179080319F5283B
:1001E800F628F8280130FA027A08031DFC28FD28B1
:1001F8000029F901F801F80A7808031904290529E2
:100208001B290130A8070318A90A0030A9070514FB
:1002180004302902E23003192802031C1429152985
:100228001B29A801A901F80105106330FA0072081A
:100238008A00710E8300FE0E7E0E090083120313DE
:10024800A7002708013E8400382186002408A5005D
:1002580003300310A50DFF3E031D2D290310250DA6
:10026800A60026088604080001308A000408840ACB
:1002780082070034EE342834CD346D342B3467349F
:10028800E7342C34EF346F34A0308B00843083167D
:100298000313810086010E3085008312051451294D
:0402A8000A28633489
:08400000FF3FFF3FFF3FFF3FC0
:02400E00623F0F
:00000001FF
