:020000000A28CC
:10000800FE00030EF1000A08F200722A0B28F9011B
:10001800FA0183120313B301B4018301402A831246
:100028000313AF002F0A03191A281B287B292F084E
:10003800A40003300310A40CFF3E031D1E2824084F
:100048000139AE002F08A40002300310A40CFF3EB3
:10005800031D292824080139B0002F08A400031023
:10006800240C0139B1002F080139B200AD01A601F5
:10007800A60A2E08031D412842285C283108031DC2
:10008800462847285C28300803194B284C28512853
:100098003208031D502851285C283008031D5528B4
:1000A80056285B28320803195A285B285C28A601C1
:1000B8002608A40001300310A40DFF3E031D5F288D
:1000C8000310240DA5002508AD04A701A70A3008D0
:1000D80003196F28702885283108031D742875288E
:1000E8007A283208031979287A28852831080319CB
:1000F8007E287F2884283208031D832884288528A1
:10010800A7012708A40002300310A40DFF3E031D19
:1001180088280310240DA5002508AD04A801A80A05
:100128003008031D98289928A428310803199D2808
:100138009E28A4283208031DA228A328A428A801C1
:100148002808A40004300310A40DFF3E031DA728AF
:100158000310240DA5002508AD04A901A90A30083B
:10016800031DB728B828BD2832080319BC28BD28A4
:10017800E62831080319C128C228C72832080319FC
:10018800C628C728E62830080319CB28CC28D62843
:100198003108031DD028D128D6283208031DD528B8
:1001A800D628E6283008031DDA28DB28E02831089D
:1001B800031DDF28E028E6282E08031DE428E5288B
:1001C800E628A9012908A40005300310A40DFF3E64
:1001D800031DE9280310240DA5002508AD04AA0174
:1001E800AA0A3008031DF928FA28FF28320803193B
:1001F800FE28FF280A293108031903290429092997
:1002080032080319082909290A29AA012A08A40079
:1002180006300310A40DFF3E031D0D290310240D05
:10022800A5002508AD04AB01AB0A2E08031D1D2946
:100238001E293D293108031D22292329282932088E
:100248000319272928293D29300803192C292D2984
:10025800322931080319312932293D293008031977
:10026800362937293C29320803193B293C293D29DD
:10027800AB012B08A4002407A5002508AD04AC0198
:10028800AC0A2E08031D49294A296929300803198F
:100298004E294F295429310803195329542969290A
:1002A8003008031D582959295E293108031D5D2985
:1002B8005E296929310803196229632968293208E6
:1002C8000319672968296929AC012C08A4002408A6
:1002D800AD047808A40003300310A40DFF3E031DED
:1002E80070290310240DA5002508AD042D08080069
:1002F80083120313A101F41F822983298A29F30990
:10030800F409F30A0319F40AA101A10AF61F8D29B9
:100318008E299729F509F609F50A0319F60A013015
:10032800F7007708A106A201A30173087404031952
:100338009E299F29D629A001A00AAD2901300310C2
:10034800F30DF40DFF3E031DA3290130F7007708D4
:10035800A007F41FB029B129A22901300310A20D6A
:10036800A30DFF3E031DB22974087602031DBE29A2
:1003780073087502031CC129C229C9297308F5022B
:100388007408031CF603F602221401300310F40C5F
:10039800F30CFF3E031DCA290130A002031DD52915
:1003A800D629B12921080319DA29DB29E029A2096C
:1003B800A309A20A0319A30A2308F4002208F300D8
:1003C800080083120313A101F61FEB29EC29F32976
:1003D800F509F609F50A0319F60AA101A10AF41F9D
:1003E800F629F729FC29F309F409F30A0319F40A91
:1003F800730874040319012A022A312AA001A00AE9
:10040800102A01300310F30DF40DFF3E031D062AD8
:100418000130F7007708A007F41F132A142A052AC9
:1004280074087602031D1A2A73087502031C1D2A14
:100438001E2A242A7308F5027408031CF603F60220
:1004480001300310F40CF30CFF3E031D252A013084
:10045800A002031D302A312A142A21080319352A3B
:10046800362A3B2AF509F609F50A0319F60A760829
:10047800F4007508F3000800A0308B00853083165F
:1004880003138100860185017A08031D4C2A4D2A31
:100498005F2A7A08F8000A30F3000030F40083126B
:1004A8003408F6003308F5007C2173081320831202
:1004B80003138600482A7A08F8000A30F30000304F
:1004C800F40083123408F6003308F500E5217308B8
:1004D8001320831203138600482A0A280B1D752A45
:1004E800762A892A0130F0007008F9077A0803197A
:1004F8007E2A802A0130812A0030FA005730831280
:100508000313B3000030B4000B1172088A00710E97
:080518008300FE0E7E0E0900B7
:08400000FF3FFF3FFF3FFF3FC0
:02400E00FF3F72
:00000001FF
