:100000000A128A11F92FFF1B0D2883137F188317FB
:100010000008840A0319FF0A080000308A00040857
:10002000840A820700342A3407340434013400344B
:10003000083405340234233409340634033442349A
:1000400065346E34763465346E34753474346F349C
:0200500000347A
:1007440000300A128A11AF230A128A1101300A12E8
:100754008A11AF230A128A110800F30083160313C7
:100764008801F930F1007108890583120313091116
:1007740073080A128A11D0230A128A1183120313EE
:1007840089141A30F200F830F100F10BC72BF20B88
:10079400C72B00008312031389100800F000701C9B
:1007A400D42BD52BD92B831203130816DC2B8312DD
:1007B40003130812F01CDF2BE02BE22B8816E32B2B
:1007C4008812701DE62BE72BE92B0817EA2B081378
:1007D400F01DED2BEE2BF02B8817F12B881308005E
:1007E400F40074080F39F2007408F039F30083122E
:1007F400031309157308F10004300310F10CFF3ED4
:10080400031DFF2B71080A128A11D0230A128A11C0
:100814008312031389140630F100F10B0F2C00002E
:1008240083120313891072080A128A11D0230A1240
:100834008A118312031389140630F100F10B202C62
:10084400000083120313891008007008710403194F
:100854002C2C2D2C5C2CF501F50A3B2C01300310BB
:10086400F00DF10DFF3E031D312C0130F40074082E
:10087400F507F11F3E2C3F2C302C71087302031D29
:10088400452C70087202031C482C492C4F2C70080C
:10089400F2027108031CF303F30201300310F10C9C
:1008A400F00CFF3E031D502C0130F502031D5B2CA0
:1008B4005C2C3F2C7308F1007208F0000800FA0168
:1008C400FB01862C7A087507F8007608F7000318F0
:1008D400F70AFA1F6E2CF7037708F90079088312D8
:1008E4000313FF00780884000A128A1103200A12F5
:1008F4008A110A128A11F2230A128A110130FA07A4
:100904000318FB0A0030FB077A087507F80076081D
:10091400F7000318F70AFA1F902CF7037708F90079
:10092400790883120313FF00780884000A128A11DD
:1009340003200A128A11003A031DA12CA22C642C54
:100944000800F501F601700871040319AA2CAB2CF8
:10095400E22CF701F70AB92C01300310F00DF10D68
:10096400FF3E031DAF2C0130F4007408F707F11F9C
:10097400BC2CBD2CAE2C01300310F50DF60DFF3E42
:10098400031DBE2C71087302031DCA2C7008720269
:10099400031CCD2CCE2CD52C7008F2027108031C3C
:1009A400F303F302751401300310F10CF00CFF3E55
:1009B400031DD62C0130F702031DE12CE22CBD2CC3
:1009C4007608F1007508F0000800F6007608031DAB
:1009D400EC2CED2C0A2D7408803EF9007908F50002
:1009E40004300310F50CFF3E031DF32C7508F700CB
:1009F40079080F39F80077080A128A11AF230A120E
:100A04008A1178080A128A11AF230A128A112B2D2F
:100A1400760803190E2D0F2D2B2D7408C03EF900F6
:100A24007908F50004300310F50CFF3E031D152D65
:100A34007508F70079080F39F80077080A128A1147
:100A4400AF230A128A1178080A128A11AF230A12F4
:100A54008A110800831603138801F930F40074081E
:100A6400890500300A128A11D0230A128A118230B1
:100A7400F500DD30F400F40B3D2DF50B3D2D422D3A
:100A840003300A128A11AF230A128A112130F500A9
:100A94007630F400F40B4C2DF50B4C2D0000033094
:100AA4000A128A11AF230A128A114130F500EE307E
:100AB400F400F40B5B2DF50B5B2D000003300A12E0
:100AC4008A11AF230A128A1102300A128A11AF2343
:100AD4000A128A1102300A128A11AF230A128A11E9
:100AE40008300A128A11AF230A128A1100300A123E
:100AF4008A11AF230A128A110C300A128A11AF2309
:100B04000A128A1100300A128A11AF230A128A11BA
:100B140006300A128A11AF230A128A110800F6015C
:100B2400F11F952D962D9D2DF009F109F00A031959
:100B3400F10AF601F60AF31FA02DA12DAA2DF20940
:100B4400F309F20A0319F30A0130F4007408F606F3
:100B5400F701F801700871040319B12DB22DE92DC4
:100B6400F501F50AC02D01300310F00DF10DFF3E23
:100B7400031DB62D0130F4007408F507F11FC32DD1
:100B8400C42DB52D01300310F70DF80DFF3E031DE4
:100B9400C52D71087302031DD12D70087202031C48
:100BA400D42DD52DDC2D7008F2027108031CF3033B
:100BB400F302771401300310F10CF00CFF3E031D17
:100BC400DD2D0130F502031DE82DE92DC42D760835
:100BD4000319ED2DEE2DF32DF709F809F70A031982
:100BE400F80A7808F1007708F00008000F30F000E8
:100BF4007008831603138804F830F0007008860523
:100C0400F4010730F0007008831286040130F0000C
:100C1400740A0E2E0310F00DFF3E031D0C2E7008F7
:100C2400FF3AF100710886056230F1006530F0008A
:100C3400F00B1A2EF10B1A2E1F2EF5010130F000C5
:100C4400750A262E0310F00DFF3E031D242E700896
:100C5400831203130805F3007308031D322E332E89
:100C64006C2E65080319372E382E6C2E7408F0008C
:100C740002300310F00DFF3E031D3B2E01307007C0
:100C8400F1007508710784000A128A110D200A12F6
:100C94008A11F200E501652E0130F000750A542E28
:100CA4000310F00DFF3E031D522E70088312031330
:100CB4000805F3008230F100DD30F000F00B602E07
:100CC400F10B602E652E73080319692E6A2E4E2EC1
:100CD4007208832EE501E50A0130F0007008F5077B
:100CE40004307502031C772E782E202E0130F0007C
:100CF4007008F40703307402031C812E822E032E25
:100D0400FF3008000A128A112C250A128A110330B6
:100D1400F40000300A128A11E7240A128A110D30F5
:100D2400F5008030F6000A128A1161240A128A1131
:100D34000A128A11F8250A128A1183120313E30096
:100D44000A3063020318A72EA82ED92E6408031DA7
:100D5400AC2EAD2EB22E0A128A11A2230A128A11C7
:100D64008312031364080319B82EB92EC12E02305E
:100D7400F40000300A128A11E7240A128A1183123D
:100D840003136408613E84006308831380006408CD
:100D9400613E84000008DE00DF015E08FC005F089D
:100DA400FD000A128A1118270A128A119A2E2A3073
:100DB4006306031DDE2EDF2EEF2E6408031DE32ED3
:100DC400E42EFB2E0130DE005E08E4072B300A120D
:100DD4008A11F2230A128A119A2E23306306031D04
:100DE400F42EF52E9A2E6408031DF92EFA2EFC2EED
:100DF4009A2E9A2E61086207E000E4013D300A123F
:100E04008A11F2230A128A11831203136008DE0086
:100E1400DF015E08FC005F08FD000A128A11182732
:100E24000A128A119A2E0A128A1100287D08831246
:100E34000313D9007C08D800DC01DD01D91B232F62
:100E4400252F0130262F0030D5005508031D2B2FE8
:100E54002C2F312F5908D7005808D6006C2F580969
:100E6400A0005909A100A00A0319A10A2008D6006C
:100E74002108D7006C2F5C08233E84000A30F00060
:100E84000030F1005708F3005608F2000A128A11E4
:100E940027240A128A117008303E8313800001301F
:100EA40083120313DC070318DD0A0030DD070A3060
:100EB400F0000030F1005708F3005608F2000A125F
:100EC4008A11A3240A128A11710883120313D7000A
:100ED4007008D60056085704031D712F722F3D2F3A
:100EE40055080319762F772F832F5C08233E84003F
:100EF4002D30831380000130DC070318DD0A003035
:100F0400DD075C08233E840083138001DA01DB01E2
:100F1400C72F233083120313A0005A08A0025C08D1
:100F24002007A1002108FF3E840083130008A200CB
:100F34005A08233E8400220880065A08233E84006F
:100F44000008A0002330A1005A08A1025C08210770
:100F5400A2002208FF3E8400200880062330A0005F
:100F64005A08A0025C082007A1002108FF3E840063
:100F74000008A2005A08233E84002208800601309B
:100F8400DA070318DB0A0030DB070230F000003018
:100F9400F1005D08F3005C08F2000A128A11912541
:100FA4000A128A11831203135B08803AA0007108A5
:100FB400803A2002031DE02F70085A02031CE32F1D
:100FC400E42F8B2F8312031358085904031DEB2FAE
:100FD400EC2FEF2F3030A300A4012330F5000030B4
:100FE400F6000A128A1161240A128A110800831277
:0C0FF4000313E50183010A128A11842E08
:08400000FF3FFF3FFF3FFF3FC0
:02400E00F23F7F
:00000001FF
