:100000000A128A11F92FFF1B0D2883137F188317FB
:100010000008840A0319FF0A080000308A00040857
:10002000840A820700342A3407340434013400344B
:10003000083405340234233409340634033442349A
:1000400065346E34763465346E34753474346F349C
:0200500000347A
:1008220000300A128A111E240A128A1101300A1299
:100832008A111E240A128A110800F3008316031378
:100842008801F930F1007108890583120313091137
:1008520073080A128A113F240A128A11831203139F
:1008620089141A30F200F830F100F10B362CF20B39
:10087200362C00008312031389100800F000701C4C
:10088200432C442C482C8312031308164B2C83123E
:1008920003130812F01C4E2C4F2C512C8816522C8C
:1008A2008812701D552C562C582C0817592C0813D9
:1008B200F01D5C2C5D2C5F2C8817602C88130800BF
:1008C200F40074080F39F2007408F039F30083124F
:1008D200031309157308F10004300310F10CFF3EF5
:1008E200031D6E2C71080A128A113F240A128A1102
:1008F2008312031389140630F100F10B7E2C0000E1
:1009020083120313891072080A128A113F240A12F1
:100912008A118312031389140630F100F10B8F2C14
:100922000000831203138910080070087104031970
:100932009B2C9C2CCB2CF501F50AAA2C0130031020
:10094200F00DF10DFF3E031DA02C0130F4007408E0
:10095200F507F11FAD2CAE2C9F2C71087302031DFD
:10096200B42C70087202031CB72CB82CBE2C700871
:10097200F2027108031CF303F30201300310F10CBD
:10098200F00CFF3E031DBF2C0130F502031DCA2CE3
:10099200CB2CAE2C7308F1007208F0000800FA01AB
:1009A200FB01F52C7A087507F8007608F7000318A2
:1009B200F70AFA1FDD2CF7037708F900790883128A
:1009C2000313FF00780884000A128A1103200A1216
:1009D2008A110A128A1161240A128A110130FA0755
:1009E2000318FB0A0030FB077A087507F80076083F
:1009F200F7000318F70AFA1FFF2CF7037708F9002C
:100A0200790883120313FF00780884000A128A11FE
:100A120003200A128A11003A031D102D112DD32C26
:100A220008000A128A11DD250A128A110330F40025
:100A320000300A128A1198250A128A110D30F50027
:100A42008030F6000A128A11D0240A128A110A1280
:100A52008A11A9260A128A1183120313E000600A7E
:100A62000319342D352D282D0A128A1111240A1248
:100A72008A110330F40000300A128A1198250A12F2
:100A82008A11831203136008DE00DF015E08FC0096
:100A92005F08FD000A128A1118270A128A11282DEE
:100AA2000A128A110028F501F6017008710403196F
:100AB2005B2D5C2D932DF701F70A6A2D013003108F
:100AC200F00DF10DFF3E031D602D0130F40074089E
:100AD200F707F11F6D2D6E2D5F2D01300310F50DFF
:100AE200F60DFF3E031D6F2D71087302031D7B2D52
:100AF20070087202031C7E2D7F2D862D7008F20273
:100B02007108031CF303F302751401300310F10C96
:100B1200F00CFF3E031D872D0130F702031D922DBD
:100B2200932D6E2D7608F1007508F0000800F6008E
:100B32007608031D9D2D9E2DBB2D7408803EF90065
:100B42007908F50004300310F50CFF3E031DA42DB7
:100B52007508F70079080F39F80077080A128A1128
:100B62001E240A128A1178080A128A111E240A12F5
:100B72008A11DC2D76080319BF2DC02DDC2D7408D7
:100B8200C03EF9007908F50004300310F50CFF3E71
:100B9200031DC62D7508F70079080F39F80077088C
:100BA2000A128A111E240A128A1178080A128A115C
:100BB2001E240A128A110800831603138801F930D1
:100BC200F4007408890500300A128A113F240A12BF
:100BD2008A118230F500DD30F400F40BEE2DF50BB6
:100BE200EE2DF32D03300A128A111E240A128A11E5
:100BF2002130F5007630F400F40BFD2DF50BFD2DC0
:100C0200000003300A128A111E240A128A1141308E
:100C1200F500EE30F400F40B0C2EF50B0C2E000058
:100C220003300A128A111E240A128A1102300A1291
:100C32008A111E240A128A1102300A128A111E24F3
:100C42000A128A1108300A128A111E240A128A1103
:100C520000300A128A111E240A128A110C300A125A
:100C62008A111E240A128A1100300A128A111E24C5
:100C72000A128A1106300A128A111E240A128A11D5
:100C82000800F601F11F462E472E4E2EF009F109FB
:100C9200F00A0319F10AF601F60AF31F512E522E39
:100CA2005B2EF209F309F20A0319F30A0130F40088
:100CB2007408F606F701F801700871040319622E30
:100CC200632E9A2EF501F50A712E01300310F00DF4
:100CD200F10DFF3E031D672E0130F4007408F50785
:100CE200F11F742E752E662E01300310F70DF80DCC
:100CF200FF3E031D762E71087302031D822E7008BB
:100D02007202031C852E862E8D2E7008F202710847
:100D1200031CF303F302771401300310F10CF00CFF
:100D2200FF3E031D8E2E0130F502031D992E9A2ED1
:100D3200752E760803199E2E9F2EA42EF709F80908
:100D4200F70A0319F80A7808F1007708F00008009A
:100D52000F30F0007008831603138804F830F00097
:100D620070088605F4010730F000700883128604CB
:100D72000130F000740ABF2E0310F00DFF3E031D78
:100D8200BD2E7008FF3AF100710886056230F1004D
:100D92006530F000F00BCB2EF10BCB2ED02EF501EF
:100DA2000130F000750AD72E0310F00DFF3E031D2F
:100DB200D52E7008831203130805F2007208031D72
:100DC200E32EE42E002F61080319E82EE92E002FEE
:100DD2007408F00002300310F00DFF3E031DEC2EEC
:100DE20001307007F1007508710784000A128A1138
:100DF2000D200A128A11F300E1017308172FE10195
:100E0200E10A0130F0007008F50704307502031C96
:100E12000B2F0C2FD12E0130F0007008F407033095
:100E22007402031C152F162FB42EFF3008007D0804
:100E320083120313D9007C08D800DC01DD01D91B21
:100E4200232F252F0130262F0030D5005508031DF2
:100E52002B2F2C2F312F5908D7005808D6006C2F72
:100E62005809A0005909A100A00A0319A10A2008E3
:100E7200D6002108D7006C2F5C08233E84000A307C
:100E8200F0000030F1005708F3005608F2000A1291
:100E92008A1196240A128A117008303E8313800048
:100EA200013083120313DC070318DD0A0030DD076B
:100EB2000A30F0000030F1005708F3005608F20043
:100EC2000A128A1154250A128A1171088312031315
:100ED200D7007008D60056085704031D712F722FD1
:100EE2003D2F55080319762F772F832F5C08233E59
:100EF20084002D30831380000130DC070318DD0AE3
:100F02000030DD075C08233E840083138001DA0190
:100F1200DB01C72F233083120313A0005A08A0025B
:100F22005C082007A1002108FF3E8400831300080B
:100F3200A2005A08233E8400220880065A08233E53
:100F420084000008A0002330A1005A08A1025C0816
:100F52002107A2002208FF3E8400200880062330D9
:100F6200A0005A08A0025C082007A1002108FF3E49
:100F720084000008A2005A08233E8400220880064A
:100F82000130DA070318DB0A0030DB070230F00019
:100F92000030F1005D08F3005C08F2000A128A11C9
:100FA20042260A128A11831203135B08803AA000B8
:100FB2007108803A2002031DE02F70085A02031CB8
:100FC200E32FE42F8B2F8312031358085904031DB8
:100FD200EB2FEC2FEF2F3030A300A4012330F500CC
:100FE2000030F6000A128A11D0240A128A1108006F
:0E0FF20083120313E10183010A128A11122DEA
:08400000FF3FFF3FFF3FFF3FC0
:02400E00F23F7F
:00000001FF
