:060000000A128A11EF2F25
:1000120000300A128A15AC210A128A1101300A1222
:100022008A15AC210A128A110800831603132708C5
:1000320083120313D10083160313260883120313BA
:10004200D00083160313250883120313CF008316EF
:100052000313240883120313CE0083160313230809
:1000620083120313D500831603132208831203138A
:10007200D40083160313210883120313D3008316BB
:100082000313200883120313D2000A128A15EF21E8
:100092000A128A11831203135108E5005008E40082
:1000A2004F08E3004E08E2006508BD006408BC008A
:1000B2006308BB006208BA00831603135E0883124A
:1000C2000313C100831603135D0883120313C000D8
:1000D200831603135C0883120313BF0083160313F2
:1000E2005B0883120313BE000A128A1152220A12FB
:1000F2008A11831203133D0883160313DE00831251
:1001020003133C0883160313DD00831203133B0819
:1001120083160313DC00831203133A0883160313B6
:10012200DB00620883120313D100831603136108F4
:1001320083120313D0008316031360088312031380
:10014200CF00831603135F0883120313CE006508E2
:10015200D5006408D4006308D3006208D2000A12F2
:100162008A15EF210A128A11831203135108D9004A
:100172005008D8004F08D7004E08D6008316031344
:100182005E0883120313A300831603135D08831210
:100192000313A200831603135C0883120313A10046
:1001A200831603135B0883120313A0008316031341
:1001B2002F0883120313A700831603132E0883123A
:1001C2000313A600831603132D0883120313A5003D
:1001D200831603132C0883120313A4000A128A1134
:1001E200AA240A128A11831203132308BD002208CB
:1001F200BC002108BB002008BA006508A3006408FF
:10020200A2006308A1006208A000831603132B0852
:1002120083120313A700831603132A0883120313FE
:10022200A60083160313290883120313A50083165D
:100232000313280883120313A4000A128A11AA24A2
:100242000A128A11831203132308C1002208C00074
:100252002108BF002008BE000A128A1152220A1287
:100262008A11831203133D08DD003C08DC003B08C1
:10027200DB003A08DA005908A3005808A200570820
:10028200A1005608A0008316031333088312031338
:10029200A70083160313320883120313A6008316E2
:1002A2000313310883120313A500831603133008C6
:1002B20083120313A4000A128A11AA240A128A11B1
:1002C200831203132308BD002208BC002108BB00CF
:1002D2002008BA005D08C1005C08C0005B08BF00CE
:1002E2005A08BE000A128A1152220A128A11831275
:1002F20003133D08E1003C08E0003B08DF003A0838
:10030200DE006108F3006008F2005F08F1005E0899
:10031200F000831603133708F7003608F600350895
:10032200F5003408F4000A128A15A2240A128A116E
:1003320003189C299D29DD29831203136508D10026
:100342006408D0006308CF006208CE00831603134E
:100352005E0883120313D500831603135D0883120C
:100362000313D400831603135C0883120313D30010
:10037200831603135B0883120313D2000A128A1531
:10038200EF210A128A1183120313510883160313F1
:10039200DE0083120313500883160313DD00831259
:1003A20003134F0883160313DC00831203134E0852
:1003B20083160313DB00392A831603133B08F30069
:1003C2003A08F2003908F1003808F00083120313EA
:1003D2006108F7006008F6005F08F5005E08F400A7
:1003E2000A128A15A2240A128A110318F929FA2973
:1003F200392A831203136508D1006408D000630808
:10040200CF006208CE00831603135E088312031323
:10041200D500831603135D0883120313D4008316D9
:1004220003135C0883120313D300831603135B08C0
:1004320083120313D2000A128A15EF210A128A11BB
:1004420083120313510883160313DE00831203136E
:10045200500883160313DD00831203134F0883161B
:100462000313DC00831203134E0883160313DB000D
:1004720083120313650883160313E2008312031326
:10048200640883160313E1008312031363088316BF
:100492000313E00083120313620883160313DF00C1
:1004A2000800831203133D088039CA003D08C200C8
:1004B2004207CC00BC1F5E2A5F2A602A4C144C08FB
:1004C2000319642A652A752A4C0A031D692A6A2AB5
:1004D200722A0030BD000030BC000030BB0000308A
:1004E200BA00BC17BD017D2A0030BD000030BC003F
:1004F2000030BB000030BA0041088039CB004B0805
:100502004A060319852A862A872A4A174108C20001
:100512004207CB00C01F8E2A8F2A902A4B144B0809
:100522000319942A952AA52A4B0A031D992A9A2A65
:10053200A22A0030C1000030C0000030BF000030ED
:10054200BE00C017C101AD2A0030C1000030C0009A
:100552000030BF000030BE004C084B020318B22A24
:10056200B32AD92A4A1FB62AB72ABB2A8030C20028
:100572004208CA064C08CD004B08CC004D08CB00FF
:100582003A08CD003E08BA004D08BE003B08CD0037
:100592003F08BB004D08BF003C08CD004008BC002E
:1005A2004D08C0003D08CD004108BD004D08C10006
:1005B200CD014B08C200C3014308C5004C084202EA
:1005C200C400031CC5034508803AFF0080307F0247
:1005D200031DED2A1A304402031CF02AF12A282BAB
:1005E200831203133D083C043B043A04031DFA2A18
:1005F200FC2A0130FD2A0030CD000030BD00003061
:10060200BC000030BB000030BA004B08CC00302BDD
:100612004D1C0C2B0D2B142B4D08C2000310420C49
:100622000138CD00162B0310CD0C3A1C192B1A2BB6
:100632001B2BCD170130C2003D0DBD0CBC0CBB0CF9
:10064200BA0CC20B1D2B0130C2004208CC07831228
:1006520003134B084C02031C2F2B302B092B4A1B74
:10066200332B342B7D2B4C08031D382B392B422B7B
:100672000030BD000030BC000030BB000030BA00CA
:10068200A92C3E08BA073F0803110318013E0319BB
:100692004B2BBB07400803110318013E0319522BD1
:1006A200BC07410803110318013E0319592BBD076A
:1006B2003D1C5C2B5D2B312C4D1C602B612B682B60
:1006C2004D08C2000310420C0138CD006A2B031002
:1006D200CD0C3A1C6D2B6E2B6F2BCD170130C20047
:1006E2003D0DBD0CBC0CBB0CBA0CC20B712B013006
:1006F200C2004208CC07312C3D08803AFF00410875
:10070200803A7F02031D8F2B40083C02031D8F2B72
:100712003F083B02031D8F2B3E083A020318922B1F
:10072200932BEB2BFF30C200FF30C300FF30C4001D
:10073200FF30C5003E08C6003F08C7004008C80099
:100742004108C9003A08C6023B08031C3B0FAA2B0A
:10075200AB2BC7023C08031C3C0FB02BB12BC802C9
:100762003D08031C3D0FB62BB72BC9024608C20732
:1007720047080318470FBE2BBF2BC30748080318AF
:10078200480FC42BC52BC40749080318490AC507DB
:100792004508BD004408BC004308BB004208BA003B
:1007A2008030C2004208CA06CD09CD0A4D08031D99
:1007B200DB2BDC2BF92B0130BA0700300318013098
:1007C200BB07003003180130BC07003003180130AA
:1007D200BD07F92B3E08BA023F08031C3F0FBB02BC
:1007E2004008031C400FBC024108031C410FBD021C
:1007F2003D083C043B043A04031D002C012C2D2C23
:100802004D08031D052C062C2D2C0030BD00003098
:10081200BC000030BB000030BA00A92C0130C2007D
:100822000310BA0DBB0DBC0DBD0DC20B112CCD1F9B
:100832001B2C1C2C1D2C3A144D1C202C212C242C3E
:100842000314CD0D262C0310CD0D4C0803192A2CB0
:100852002B2C2D2C0130CC02BC1F302C312C0F2C18
:10086200CB01CD1F352C362C442C4D087F39031972
:100872003B2C3C2C3F2CCB01CB0A442C3A1C422C67
:10088200432C442C3C2C4B080319482C492C7D2C1E
:100892000130BA07003003180130BB0700300318DB
:1008A2000130BC07003003180130BD073D1C5A2C33
:1008B2005B2C7D2C3A08C2003B08C3003C08C400F4
:1008C2003D08C5000130C600450DC50CC40CC30C63
:1008D200C20CC60B652C4508BD004408BC00430889
:1008E200BB004208BA004C0A0319782C792C7D2CE3
:1008F2000130C2004208CC074C0A0319812C822C19
:10090200872C4C08031D862C872C952C0030BD00AB
:100912000030BC000030BB000030BA004C08031DA0
:10092200932C942C952CCA014C1C982C992C9B2C02
:10093200BC179F2C7F30C2004208BC054C08C20085
:100942000310420CBD00CA1FA72CA82CA92CBD174E
:1009520008008312031323088039AD002308A8007E
:100962002807B300A21FB62CB72CB82C33143308B7
:100972000319BC2CBD2CCC2C330A031DC12CC22C58
:10098200CA2C0030A3000030A2000030A1000030C9
:10099200A000A217D42C0030A3000030A200003027
:1009A200A1000030A00027088039A8002808AD0661
:1009B2002708A8002807B200A61FE02CE12CE22C91
:1009C200321432080319E62CE72CF62C320A031DE6
:1009D200EB2CEC2CF42C0030A7000030A6000030E9
:1009E200A5000030A400A617FE2C0030A70000309E
:1009F200A6000030A5000030A40032080319022D21
:100A0200032D082D3308031D072D082D112D00304D
:100A1200A3000030A2000030A1000030A000EE2FA1
:100A22002008F00026080A128A1513220A128A11D7
:100A3200710883120313B9007008B8003808A800BF
:100A4200A901AA01AB012B08B1002A08B0002908AC
:100A5200AF002808AE003908A800A901AA01AB011D
:100A62002B08B7002A08B6002908B5002808B400E8
:100A72002108F00025080A128A1513220A128A1187
:100A8200710883120313B9007008B8003808A8006F
:100A9200A901AA01AB012808AE072908031103180E
:100AA200013E0319552DAF072A0803110318013E11
:100AB20003195C2DB0072B0803110318013E03191B
:100AC200632DB1073908A800A901AA01AB012808C2
:100AD200B407290803110318013E0319712DB50744
:100AE2002A0803110318013E0319782DB6072B08B3
:100AF20003110318013E03197F2DB7072208F000E6
:100B020024080A128A1513220A128A117108831202
:100B12000313B9007008B8003808A800A901AA0197
:100B2200AB012808AE07290803110318013E031977
:100B32009B2DAF072A0803110318013E0319A22DAA
:100B4200B0072B0803110318013E0319A92DB107A1
:100B52003908A800A901AA01AB012808B40729088D
:100B620003110318013E0319B72DB5072A08031113
:100B72000318013E0319BE2DB6072B0803110318F3
:100B8200013E0319C52DB7070830A8000310AE0DAA
:100B9200AF0DB00DB10DA80BC72D2108F000240830
:100BA2000A128A1513220A128A1171088312031378
:100BB200B9007008B8003808A8003908A900AA01CD
:100BC200AB012808AE07290803110318013E0319D7
:100BD200EB2DAF072A0803110318013E0319F22D6A
:100BE200B0072B0803110318013E0319F92DB107B1
:100BF2002008F00025080A128A1513220A128A1107
:100C0200710883120313B9007008B8003808A800ED
:100C12003908A900AA01AB012808AE072908031167
:100C22000318013E0319162EAF072A0803110318F1
:100C3200013E03191D2EB0072B0803110318013EB4
:100C42000319242EB1070830A8000310AE0DAF0D12
:100C5200B00DB10DA80B262E2008F00024080A12B0
:100C62008A1513220A128A11710883120313B9001A
:100C72007008B8003808A8003908A900AA01AB0119
:100C82002808AE07290803110318013E03194A2E4A
:100C9200AF072A0803110318013E0319512EB007AA
:100CA2002B0803110318013E0319582EB10721081E
:100CB200F00026080A128A1513220A128A117108F4
:100CC20083120313B9007008B8003808A800390865
:100CD200A900AA01AB012808B407290803110318C7
:100CE200013E0319752EB5072A0803110318013EA8
:100CF20003197C2EB6072B0803110318013E0319B2
:100D0200832EB7072208F00025080A128A1513223B
:100D12000A128A11710883120313B9007008B8000D
:100D22003808A8003908A900AA01AB012808B407AD
:100D3200290803110318013E0319A02EB5072A083A
:100D420003110318013E0319A72EB6072B0803113E
:100D52000318013E0319AE2EB7072208F000260839
:100D62000A128A1513220A128A11710883120313B6
:100D7200B9007008B8003808A8003908A900AA010B
:100D8200AB0108300310A80DA90DAA0DAB0DFF3E53
:100D9200031DC32E2808B407290803110318013EB6
:100DA2000319D42EB5072A0803110318013E0319AB
:100DB200DB2EB6072B0803110318013E0319E22E9E
:100DC200B7072E08A8002F08A9003008AA0031088A
:100DD200AB0018300310AB0CAA0CA90CA80CFF3EF8
:100DE200031DEB2E2808B407290803110318013E3E
:100DF2000319FC2EB5072A0803110318013E031933
:100E0200032FB6072B0803110318013E03190A2FFB
:100E1200B7070830A8000310AE0DAF0DB00DB10D2D
:100E2200A80B0C2F33083207A800A901A90D280826
:100E3200823EB80029080318013EFF3EB9003E2F4A
:100E42000130A8000310B40DB50DB60DB70DA80BF7
:100E5200232FB11F2D2F2E2F2F2F34140130A80036
:100E62000310AE0DAF0DB00DB10DA80B312FFF3039
:100E7200B8070318B90AFF30B907B61F412F422F2E
:100E8200212FB201B11F462F472F632FFF302E05AE
:100E9200A800FF302F05A900FF303005AA007F30DF
:100EA2003105AB002B082A042904280403195A2F00
:100EB2005B2F5E2FB201B20A632F341C612F622FA7
:100EC200632F5B2F32080319672F682F992F013088
:100ED200B407003003180130B507003003180130A1
:100EE200B607003003180130B707371C792F7A2F65
:100EF200992F3408A8003508A9003608AA00370837
:100F0200AB000130AC002B0DAB0CAA0CA90CA80C49
:100F1200AC0B842F2B08B7002A08B6002908B500AD
:100F22002808B4000130B8070318B90A0030B9071D
:100F32003908803AFF0080307F02031DA22FFF3064
:100F42003802031CA52FA62FB12F7F308312031363
:100F5200B7008030B6000030B5000030B400E22F98
:100F6200831203133908803AFF0080307F02031D89
:100F7200BC2F013038020318BF2FC02FCC2F0030F6
:100F820083120313B7000030B6000030B500003002
:100F9200B400AD01E22F831203133808B300FF300F
:100FA200B405FF30B5057F30B6050030B705331CF8
:100FB200DB2FDC2FDD2FB6173308A8000310280C17
:100FC200B7002D08A8002808B7043708A300360880
:100FD200A2003508A1003408A00008008312031300
:100FE200EA0183160313DB01DC01DD01DE01DF010F
:100FF200E001E101E20183010A128A15FC2DFF1BC7
:101002000A2883137F1883170008840A0319FF0A2A
:10101200080008308A000408840A820700342A344F
:1010220007340434013400340834053402342334E0
:10103200093406340334EE342834CD346D342B3481
:101042006734E7342C34EF346F342E3435340034C3
:101346008130831203139F008030831603139F009E
:101356000800F300831603138801F930F1007108C1
:10136600890583120313091173080A128A15CD2100
:101376000A128A158312031389141A30F200F83000
:10138600F100F10BC429F20BC429000083120313E8
:1013960089100800F000701CD129D229D6298312A1
:1013A60003130816D929831203130812F01CDC292B
:1013B600DD29DF298816E0298812701DE329E42932
:1013C600E6290817E7290813F01DEA29EB29ED2974
:1013D6008817EE2988130800803083120313D1067C
:1013E6005508BD005408BC005308BB005208BA009B
:1013F6005108C1005008C0004F08BF004E08BE008B
:101406000A128A1152220A128A15831203133D0800
:10141600D1003C08D0003B08CF003A08CE000800B7
:10142600F800F401F5017008F200F3017208F60005
:101436007308F700781C202A212A272A7608F40741
:101446000318F50A7708F50701300310F60DF70DB6
:10145600FF3E031D282A0310F80C7808031D342AC2
:10146600352A1D2A7508F1007408F0000800F400FA
:10147600831603130514C730F20072088312031390
:101486009F057408F20002300310F20DFF3E031DA3
:10149600472A0310720DF30073089F044130F300CE
:1014A600EE30F200F20B552AF30B552A0000831298
:1014B60003131F151F19602A612A5D2A1F151E08AE
:1014C600F100831603131E08F0000800F4007408E8
:1014D6000F39F2007408F039F3008312031309156B
:1014E6007308F10004300310F10CFF3E031D762A49
:1014F60071080A128A15CD210A128A15831203135E
:1015060089140630F100F10B862A000083120313BA
:10151600891072080A128A15CD210A128A158312B9
:10152600031389140630F100F10B972A0000831289
:10153600031389100800700871040319A32AA42A4A
:10154600D32AF501F50AB22A01300310F00DF10D88
:10155600FF3E031DA82A0130F4007408F507F11FA9
:10156600B52AB62AA72A71087302031DBC2A700879
:101576007202031CBF2AC02AC62A7008F20271082A
:10158600031CF303F30201300310F10CF00CFF3ED1
:10159600031DC72A0130F502031DD22AD32AB62A13
:1015A6007308F1007208F0000800FA01FB01FD2A39
:1015B6007A087507F8007608F7000318F70AFA1F85
:1015C600E52AF7037708F900790883120313FF0069
:1015D600780884000A128A1500200A128A150A124F
:1015E6008A1569220A128A150130FA070318FB0ABE
:1015F6000030FB077A087507F8007608F70003182D
:10160600F70AFA1F072BF7037708F9007908831200
:101616000313FF00780884000A128A1500200A12B4
:101626008A15003A031D182B192BDB2A0800F50131
:10163600F601700871040319212B222B592BF7018F
:10164600F70A302B01300310F00DF10DFF3E031D9C
:10165600262B0130F4007408F707F11F332B342BC7
:10166600252B01300310F50DF60DFF3E031D352B1E
:1016760071087302031D412B70087202031C442B70
:10168600452B4C2B7008F2027108031CF303F3027E
:10169600751401300310F10CF00CFF3E031D4D2BA9
:1016A6000130F702031D582B592B342B7608F10015
:1016B6007508F0000800831603138801F930F4005A
:1016C6007408890500300A128A15CD210A128A1576
:1016D6008230F500DD30F400F40B6F2BF50B6F2B29
:1016E600742B03300A128A15AC210A128A1521308E
:1016F600F5007630F400F40B7E2BF50B7E2B000004
:1017060003300A128A15AC210A128A154130F500F7
:10171600EE30F400F40B8D2BF50B8D2B000003300F
:101726000A128A15AC210A128A1502300A128A1583
:10173600AC210A128A1502300A128A15AC210A1245
:101746008A1508300A128A15AC210A128A15003049
:101756000A128A15AC210A128A150C300A128A1549
:10176600AC210A128A1500300A128A15AC210A1217
:101776008A1506300A128A15AC210A128A15080043
:10178600F601F11FC72BC82BCF2BF009F109F00A80
:101796000319F10AF601F60AF31FD22BD32BDC2B21
:1017A600F209F309F20A0319F30A0130F400740886
:1017B600F606F701F801700871040319E32BE42B10
:1017C6001B2CF501F50AF22B01300310F00DF10D7B
:1017D600FF3E031DE82B0130F4007408F507F11FE6
:1017E600F52BF62BE72B01300310F70DF80DFF3E16
:1017F600031DF72B71087302031D032C7008720278
:10180600031C062C072C0E2C7008F2027108031C10
:10181600F303F302771401300310F10CF00CFF3ED2
:10182600031D0F2C0130F502031D1A2C1B2CF62B61
:10183600760803191F2C202C252CF709F809F70A1E
:101846000319F80A7808F1007708F0000800031079
:10185600831203133C0D3D0DC3004308031D342CB6
:10186600352C3E2C0030BD000030BC000030BB00E3
:101876000030BA00A12C3A08BE003B08BF003C0865
:10188600C0003D08C1001F300310C10CC00CBF0CC6
:10189600BE0CFF3E031D472C3E08C200BC17FF309E
:1018A600BA05FF30BB05FF30BC050030BD059630DC
:1018B600C302C31F5F2C602C7A2C4308803A973EE4
:1018C6000318662C672C682C352C01300310BD0CD0
:1018D600BC0CBB0CBA0CFF3E031D692C0130BE00CC
:1018E6003E08C307031D782C792C682C912C2030D8
:1018F6004302031C7F2C802C8C2C352C0130BE001F
:101906000310BA0DBB0DBC0DBD0DBE0B832C0130F3
:10191600C3024308031D902C912C812C4208031905
:10192600952C962CA12CBA09BB09BC09BD09BA0A8B
:101936000319BB0A0319BC0A0319BD0A08000030C3
:101946007005F80000307105F90080307205FA0064
:101956007F307305FB007B087A0479047804031D45
:10196600B52CB62CBE2C0030F3000030F20000304F
:10197600F1000030F00000307405F8000030750505
:10198600F90080307605FA007F307705FB007B088A
:101996007A0479047804031DD12CD22CDA2C003079
:1019A600F7000030F6000030F5000030F400F31FB9
:1019B600DD2CDE2C022D0030F8000030F90000305E
:1019C600FA008030FB007008F8027108031C710FE2
:1019D600ED2CEE2CF9027208031C720FF32CF42C7A
:1019E600FA027308031C730FF92CFA2CFB027B080E
:1019F600F3007A08F2007908F1007808F000F71F82
:101A0600052D062D2A2D0030F8000030F900003093
:101A1600FA008030FB007408F8027508031C750F85
:101A2600152D162DF9027608031C760F1B2D1C2D7D
:101A3600FA027708031C770F212D222DFB027B0863
:101A4600F7007A08F6007908F5007808F400803087
:101A5600F3068030F70677087302031D3C2D7608DF
:101A66007202031D3C2D75087102031D3C2D74087E
:101A7600700203183F2D402D422D0310432D0314F1
:101A86000800F80078080319492D4A2D5E2DF31F2A
:101A96004D2D4E2D5E2D7009FA007109FB0072095D
:101AA600FC007309FD00FA0A0319FB0A0319FC0A74
:101AB6000319FD0A662D7308FD007208FC00710803
:101AC600FB007008FA007308720471047004031DA9
:101AD6006D2D6E2D772D0030F3000030F2000030B2
:101AE600F1000030F000FB2D9630F900872D013013
:101AF600F4007408F90701300310FD0CFC0CFB0C14
:101B0600FA0CFF3E031D7F2DFE307D05031D8C2D37
:101B16008D2D7A2DA92D0130F4007408F9070130B6
:101B2600FA07003003180130FB07003003180130B4
:101B3600FC07003003180130FD0701300310FD0CCF
:101B4600FC0CFB0CFA0CFF3E031DA12DFF307D059E
:101B5600031DAE2DAF2D8E2DBB2D0130F9020130A8
:101B6600F4000310FA0DFB0DFC0DFD0DF40BB42D66
:101B7600FC1BBE2DBF2DC52D023079020318C42DC6
:101B8600C52DB02D7918C82DC92DD12DFF30FA05D8
:101B9600FF30FB057F30FC05FF30FD050310F90C17
:101BA6007908F400F501F601F70118300310F40D79
:101BB600F50DF60DF70DFF3E031DD92D7408FA0439
:101BC6007508FB047608FC047708FD0478080319F9
:101BD600ED2DEE2DF32DF31FF12DF22DF32DFD1727
:101BE6007D08F3007C08F2007B08F1007A08F0001B
:101BF60008008130831203139000F9308316031313
:101C060092007D30831203139500093097008E01F0
:101C16008F010A128A15A3210A128A150A128A1539
:101C26005E230A128A158316031387018312031390
:101C3600871602300A128A153A220A128A15710884
:101C460083120313E9007008E80067086906031D9C
:101C56002E2E66086806031D312E322E332E1C2EBC
:101C6600413083160313A3009C30A2002830A10044
:101C7600F630A000831203136808F0006908F1002B
:101C86000030F11BFF30F200F30001300A128A1512
:101C960044250A128A15730883160313A7007208CF
:101CA600A6007108A5007008A4003F30AB00803084
:101CB600AA000030A9000030A8000030AF000030B4
:101CC600AE000030AD000030AC003D30B300CC308B
:101CD600B200CC30B100CD30B0000030B7000030DB
:101CE600B6000030B5000030B4004330BB007F3092
:101CF600BA000030B9000030B8000A128A11162066
:101D06000A128A150A128A1109200A128A158312E2
:101D160003136908E7006808E6006808F000690828
:101D2600F1000030F11BFF30F200F30001300A121F
:101D36008A1544250A128A15730883120313A7000D
:101D46007208A6007108A5007008A4003E30A30022
:101D5600F930A200DB30A1002330A0000A128A115C
:101D6600AA240A128A15831203132308BD00220827
:101D7600BC002108BB002008BA000A128A152A24D2
:101D86000A128A15831203133B08C5003A08C400D9
:101D96000A128A15E3260A128A1583120313681893
:101DA600D52ED62E1C2E1730F5008030F6000A12DE
:101DB6008A15D8220A128A151C2E0A128A110028A0
:101DC60083120313450883160313D60083120313E5
:101DD600440883160313D500D901DA01D61BF42E65
:101DE600F62E0130F72E0030D2005208031DFC2ECD
:101DF600FD2E022F5608D4005508D300492F550949
:101E060083120313C60083160313560983120313A2
:101E1600C700C60A0319C70A460883160313D30068
:101E260083120313470883160313D400492F590856
:101E3600A03E84000A30F0000030F1005408F300A0
:101E46005308F2000A128A159E220A128A15700891
:101E5600303E83138000013083160313D90703181D
:101E6600DA0A0030DA070A30F0000030F1005408D0
:101E7600F3005308F2000A128A151A230A128A1569
:101E8600710883160313D4007008D3005308540452
:101E9600031D4E2F4F2F1A2F52080319532F542F5D
:101EA600602F5908A03E84002D3083138000013036
:101EB600D9070318DA0A0030DA075908A03E840069
:101EC60083138001D701D801CA2FA03083120313D0
:101ED600C60083160313570883120313C60283161C
:101EE60003135908831203134607C7004708FF3E2A
:101EF600840083130008C800831603135708A03E06
:101F060084008312031348088006831603135708B8
:101F1600A03E8400000883120313C600A030C70049
:101F260083160313570883120313C702831603137A
:101F36005908831203134707C8004808FF3E840068
:101F460046088006A030C60083160313570883127E
:101F56000313C60283160313590883120313460795
:101F6600C7004708FF3E84000008C8008316031315
:101F76005708A03E840083120313480880060130E8
:101F860083160313D7070318D80A0030D807023080
:101F9600F0000030F1005A08F3005908F2000A1266
:101FA6008A15C3230A128A15831603135808803A22
:101FB60083120313C6007108803A4602031DE72FF9
:101FC6007008831603135702031CEA2FEB2F682FA2
:101FD6008316031355085604031DF22FF32FF62F0D
:101FE6003030A000A101A030F5000030F6000A1242
:0A1FF6008A15D8220A128A15080085
:08400000FF3FFF3FFF3FFF3FC0
:02400E00F23F7F
:00000001FF
