:060000000A128A110C280F
:10000800FE00030EF0000A08F1000A128A155F2AA2
:100018000A128A110F28FB0183160313C201C301B8
:10002800C401C501C601C701C801C901CA01CB0184
:10003800CC0183010A128A11C42E831203132308E8
:100048008039AD002308A8002807B300A21F2D2877
:100058002E282F283314330803193328342843282B
:10006800330A031D3828392841280030A3000030FE
:10007800A2000030A1000030A000A2174B280030D9
:10008800A3000030A2000030A1000030A000270823
:100098008039A8002808AD062708A8002807B2005C
:1000A800A61F5728582859283214320803195D28E2
:1000B8005E286D28320A031D622863286B280030E9
:1000C800A7000030A6000030A5000030A400A61745
:1000D80075280030A7000030A6000030A5000030C9
:1000E800A4003208031979287A287F283308031DC9
:1000F8007E287F2888280030A3000030A200003026
:10010800A1000030A000652B2008F20026080A1282
:100118008A1538220A128A11730883120313B90048
:100128007208B8003808A800A901AA01AB012B0879
:10013800B1002A08B0002908AF002808AE00390825
:10014800A800A901AA01AB012B08B7002A08B6002C
:100158002908B5002808B4002108F20025080A1269
:100168008A1538220A128A11730883120313B900F8
:100178007208B8003808A800A901AA01AB0128082C
:10018800AE07290803110318013E0319CC28AF074D
:100198002A0803110318013E0319D328B0072B08B6
:1001A80003110318013E0319DA28B1073908A8001A
:1001B800A901AA01AB012808B407290803110318EB
:1001C800013E0319E828B5072A0803110318013E60
:1001D8000319EF28B6072B0803110318013E03196A
:1001E800F628B7072208F20024080A128A153822CE
:1001F8000A128A11730883120313B9007208B8002F
:100208003808A800A901AA01AB012808AE072908E7
:1002180003110318013E03191229AF072A08031115
:100228000318013E03191929B0072B0803110318F5
:10023800013E03192029B1073908A800A901AA011C
:10024800AB012808B407290803110318013E031954
:100258002E29B5072A0803110318013E0319352969
:10026800B6072B0803110318013E03193C29B707E9
:100278000830A8000310AE0DAF0DB00DB10DA80BDE
:100288003E292108F20024080A128A1538220A1287
:100298008A11730883120313B9007208B80038086A
:1002A800A8003908A900AA01AB012808AE07290847
:1002B80003110318013E03196229AF072A08031125
:1002C8000318013E03196929B0072B080311031805
:1002D800013E03197029B1072008F20025080A1207
:1002E8008A1538220A128A11730883120313B90077
:1002F8007208B8003808A8003908A900AA01AB019B
:100308002808AE07290803110318013E03198D298F
:10031800AF072A0803110318013E03199429B007EF
:100328002B0803110318013E03199B29B107083054
:10033800A8000310AE0DAF0DB00DB10DA80B9D298F
:100348002008F20024080A128A1538220A128A1193
:10035800730883120313B9007208B8003808A8009C
:100368003908A900AA01AB012808AE07290803111A
:100378000318013E0319C129AF072A0803110318FE
:10038800013E0319C829B0072B0803110318013EC1
:100398000319CF29B1072108F20026080A128A1585
:1003A80038220A128A11730883120313B9007208DB
:1003B800B8003808A8003908A900AA01AB01280824
:1003C800B407290803110318013E0319EC29B507DE
:1003D8002A0803110318013E0319F329B6072B084D
:1003E80003110318013E0319FA29B7072208F2007E
:1003F80025080A128A1538220A128A1173088312EC
:100408000313B9007208B8003808A8003908A90011
:10041800AA01AB012808B407290803110318013EF3
:100428000319172AB5072A0803110318013E0319EF
:100438001E2AB6072B0803110318013E0319252AA3
:10044800B7072208F20026080A128A1538220A126B
:100458008A11730883120313B9007208B8003808A8
:10046800A8003908A900AA01AB0108300310A80D9B
:10047800A90DAA0DAB0DFF3E031D3A2A2808B407A3
:10048800290803110318013E03194B2AB5072A0846
:1004980003110318013E0319522AB6072B0803114A
:1004A8000318013E0319592AB7072E08A8002F0878
:1004B800A9003008AA003108AB0018300310AB0CB3
:1004C800AA0CA90CA80CFF3E031D622A2808B40731
:1004D800290803110318013E0319732AB5072A08CE
:1004E80003110318013E03197A2AB6072B080311D2
:1004F8000318013E0319812AB7070830A800031022
:10050800AE0DAF0DB00DB10DA80B832A330832071D
:10051800A800A901A90D2808823EB80029080318D7
:10052800013EFF3EB900B52A0130A8000310B40D02
:10053800B50DB60DB70DA80B9A2AB11FA42AA52A86
:10054800A62A34140130A8000310AE0DAF0DB00D6B
:10055800B10DA80BA82AFF30B8070318B90AFF3055
:10056800B907B61FB82AB92A982AB201B11FBD2AFD
:10057800BE2ADA2AFF302E05A800FF302F05A90071
:10058800FF303005AA007F303105AB002B082A0464
:10059800290428040319D12AD22AD52AB201B20A79
:1005A800DA2A341CD82AD92ADA2AD22A3208031994
:1005B800DE2ADF2A102B0130B4070030031801307F
:1005C800B507003003180130B607003003180130B2
:1005D800B707371CF02AF12A102B3408A800350871
:1005E800A9003608AA003708AB000130AC002B0D73
:1005F800AB0CAA0CA90CA80CAC0BFB2A2B08B70057
:100608002A08B6002908B5002808B4000130B80740
:100618000318B90A0030B9073908803AFF0080305A
:100628007F02031D192BFF303802031C1C2B1D2BC6
:10063800282B7F3083120313B7008030B6000030B8
:10064800B5000030B400592B831203133908803ADF
:10065800FF0080307F02031D332B0130380203185E
:10066800362B372B432B003083120313B70000308F
:10067800B6000030B5000030B400AD01592B83122C
:1006880003133808B300FF30B405FF30B5057F30D9
:10069800B6050030B705331C522B532B542BB61715
:1006A8003308A8000310280CB7002D08A800280854
:1006B800B7043708A3003608A2003508A10034089B
:1006C800A000080083160313270883120313D10020
:1006D80083160313260883120313D000831603130B
:1006E800250883120313CF008316031324088312EB
:1006F8000313CE0083160313230883120313D500B4
:1007080083160313220883120313D40083160313DA
:10071800210883120313D3008316031320088312BE
:100728000313D2000A128A1514220A128A1183129C
:1007380003135108E5005008E4004F08E3004E0891
:10074800E2006508BD006408BC006308BB006208DD
:10075800BA0083160313450883120313C1008316D6
:100768000313440883120313C000831603134308BA
:1007780083120313BF008316031342088312031363
:10078800BE000A128A15A8250A128A1183120313B9
:100798003D0883160313C500831203133C08831610
:1007A8000313C400831203133B0883160313C30007
:1007B800831203133A0883160313C20049088312ED
:1007C8000313D10083160313480883120313D000C0
:1007D80083160313470883120313CF0083160313EA
:1007E800460883120313CE006508D5006408D400B8
:1007F8006308D3006208D2000A128A1514220A126A
:100808008A11831203135108D9005008D8004F08E1
:10081800D7004E08D6008316031345088312031326
:10082800A30083160313440883120313A20083163C
:100838000313430883120313A1008316031342080A
:1008480083120313A000831603132F0883120313C4
:10085800A700831603132E0883120313A60083161A
:1008680003132D0883120313A500831603132C0802
:1008780083120313A4000A128A1121200A128A1172
:10088800831203132308BD002208BC002108BB0003
:100898002008BA006508A3006408A2006308A10044
:1008A8006208A000831603132B0883120313A70002
:1008B800831603132A0883120313A600831603134F
:1008C800290883120313A50083160313280883122B
:1008D8000313A4000A128A1121200A128A11831212
:1008E80003132308C1002208C0002108BF00200804
:1008F800BE000A128A15A8250A128A118312031348
:100908003D08DD003C08DC003B08DB003A08DA0063
:100918005908A3005808A2005708A1005608A000CB
:1009280083160313330883120313A70083160313D4
:10093800320883120313A6008316031331088312A7
:100948000313A50083160313300883120313A400AE
:100958000A128A1121200A128A118312031323080A
:10096800BD002208BC002108BB002008BA005D08B1
:10097800C1005C08C0005B08BF005A08BE000A122C
:100988008A15A8250A128A11831203133D08E1006B
:100998003C08E0003B08DF003A08DE006108F5008B
:1009A8006008F4005F08F3005E08F2008316031382
:1009B8003708F9003608F8003508F7003408F6005B
:1009C8000A128A154A240A128A110318EC2CED2CF3
:1009D800432D831203136508D1006408D00063080F
:1009E800CF006208CE008316031345088312031351
:1009F800D50083160313440883120313D400831607
:100A08000313430883120313D30083160313420806
:100A180083120313D2000A128A1514220A128A11A9
:100A280083120313510883160313C500831203139B
:100A3800500883160313C400831203134F08831648
:100A48000313C300831203134E0883160313C20053
:100A5800370883120313E100831603133608831241
:100A68000313E00083160313350883120313DF0012
:100A780083160313340883120313DE00B52D83167F
:100A880003133B08F5003A08F4003908F300380866
:100A9800F200831203136108F9006008F8005F0888
:100AA800F7005E08F6000A128A154A240A128A110B
:100AB80003185F2D602DB52D831203136508D1002F
:100AC8006408D0006308CF006208CE0083160313C1
:100AD800450883120313D5008316031344088312B1
:100AE8000313D40083160313430883120313D3009C
:100AF80083160313420883120313D2000A128A15BD
:100B080014220A128A11831203135108831603133D
:100B1800C50083120313500883160313C4008312FD
:100B280003134F0883160313C300831203134E08DD
:100B380083160313C2003B0883120313E1008316D4
:100B480003133A0883120313E000831603133908CA
:100B580083120313DF008316031338088312031369
:100B6800DE0083120313650883160313C90083127A
:100B78000313640883160313C8008312031363085E
:100B880083160313C7008312031362088316031323
:100B9800C60083120313610883160313A30083128C
:100BA8000313600883160313A200831203135F085C
:100BB80083160313A100831203135E08831603131D
:100BC800A0000800831203132108DB002008DA00C4
:100BD800DE01DF01DB1BF12DF32D0130F42D003098
:100BE800D7005708031DF92DFA2DFF2D5B08D900F2
:100BF8005A08D8003A2E5A09A2005B09A300A20A93
:100C08000319A30A2208D8002308D9003A2E5E083F
:100C1800253E84000A30F2000030F3005908F50040
:100C28005808F4000A128A15EF220A128A1172086B
:100C3800303E83138000013083120313DE0703184C
:100C4800DF0A0030DF070A30F2000030F3005908ED
:100C5800F5005808F4000A128A1529230A128A1185
:100C6800730883120313D9007208D800580859046E
:100C7800031D3F2E402E0B2E57080319442E452ED8
:100C8800512E5E08253E84002D30831380000130EC
:100C9800DE070318DF0A0030DF075E08253E840000
:100CA80083138001DC01DD01952E253083120313A7
:100CB800A2005C08A2025E082207A3002308FF3EE8
:100CC800840083130008A4005C08253E84002408DF
:100CD80080065C08253E84000008A2002530A30099
:100CE8005C08A3025E082307A4002408FF3E8400D2
:100CF800220880062530A2005C08A2025E082207AE
:100D0800A3002308FF3E84000008A4005C08253ED9
:100D18008400240880060130DC070318DD0A00304F
:100D2800DD070230F2000030F3005F08F5005E08CE
:100D3800F4000A128A1191270A128A1183120313E6
:100D48005D08803AA2007308803A2202031DAE2E85
:100D580072085C02031CB12EB22E592E83120313A3
:100D68005A085B04031DB92EBA2EBD2E3030A500DB
:100D7800A60125300A128A15D1210A128A11080003
:100D88000A128A159A210A128A110A128A156D23E3
:100D98000A128A1183160313870183120313871615
:100DA800A0308B0084308316031381002D30CC00D3
:100DB8004B0883120313810083160313C001C1017A
:100DC80002300A128A158B220A128A1173088316B6
:100DD8000313C1007208C0003F084106031DF62E28
:100DE8003E084006031DF92EFA2EFB2EE02E433056
:100DF800BB007F30BA000030B9000030B8000030C6
:100E0800B7000030B6000030B5000030B400003044
:100E1800B3000030B2000030B1000030B000003044
:100E2800AF000030AE000030AD000030AC003F3005
:100E3800AB008030AA000030A9000030A8004008AC
:100E4800F2004108F3000030F31BFF30F400F50016
:100E580001300A128A15EE240A128A1175088316BF
:100E68000313A7007408A6007308A5007208A4005D
:100E78004130A3009C30A2002830A100F630A00029
:100E88000A128A1166230A128A1183160313230889
:100E980083120313E9008316031322088312031332
:100EA800E80083160313210883120313E70083164F
:100EB8000313200883120313E6000A128A15D223AB
:100EC8000A128A1183120313660883160313CC00CF
:100ED8004C09CB004C08CA000A128A15A3210A1231
:100EE8008A11831603134108BF004008BE004C084E
:100EF800BC00BD013C0883120313A0008316031332
:100F08003D0883120313A1000A128A11E6250A126A
:100F18008A11E02E0A128A110C28F801F31F952F66
:100F2800962F9D2FF209F309F20A0319F30AF80123
:100F3800F80AF51FA02FA12FAA2FF409F509F40A22
:100F48000319F50A0130F6007608F806F901FA01E6
:100F5800720873040319B12FB22FE92FF701F70AAA
:100F6800C02F01300310F20DF30DFF3E031DB62F05
:100F78000130F6007608F707F31FC32FC42FB52FEB
:100F880001300310F90DFA0DFF3E031DC52F73083C
:100F98007502031DD12F72087402031CD42FD52F9C
:100FA800DC2F7208F4027308031CF503F5027914A8
:100FB80001300310F30CF20CFF3E031DDD2F01304E
:100FC800F702031DE82FE92FC42F78080319ED2F26
:100FD800EE2FF32FF909FA09F90A0319FA0A7A0820
:080FE800F3007908F200080093
:1010000008308A000408840A820700342A3407342E
:1010100004340134003408340534023423340934F0
:1010200006340334EE342834CD346D342B34673435
:08103000E7342C34EF346F3477
:101334008130831203139F008030831603139F00B0
:10134400080000300A128A15B0210A128A150130E9
:101354000A128A15B0210A128A150800F5008316AC
:1013640003138801F930F30073088905831203130A
:10137400091175080A128A15F2210A128A158312B4
:10138400031389141A30F400F830F300F30BC8295E
:10139400F40BC82900008312031389100800FA0013
:1013A400F801F901E62978087A07F700770884003C
:1013B40000080A128A15BA220A128A150130F8079F
:1013C4000318F90A0030F90778087A07F700770854
:1013D400840083130008031DF029F129D52908008E
:1013E400F200721CF629F729FB298312031308164D
:1013F400FE29831203130812F21C012A022A042A6A
:101404008816052A8812721D082A092A0B2A081729
:101414000C2A0813F21D0F2A102A122A8817132ADD
:1014240088130800803083120313D1065508BD00C9
:101434005408BC005308BB005208BA005108C1004C
:101444005008C0004F08BF004E08BE000A128A159B
:10145400A8250A128A15831203133D08D1003C08FB
:10146400D0003B08CF003A08CE000800FA00F6018D
:10147400F7017208F400F5017408F8007508F90022
:101484007A1C452A462A4C2A7808F6070318F70AD4
:101494007908F70701300310F80DF90DFF3E031D1D
:1014A4004D2A0310FA0C7A08031D592A5A2A422A93
:1014B4007708F3007608F20008000B1D622A632AFD
:1014C400842A031083120313871E031403186B2A40
:1014D4006F2A831203138716722A83120313871247
:1014E4000B11871E762A772A7E2A831603134B084C
:1014F400831203138100842A831603134A08831278
:101504000313810071088A00700E8300FE0E7E0EA4
:101514000900F600831603130514C730F400740899
:10152400831203139F057608F40002300310F40DB0
:10153400FF3E031D982A0310740DF50075089F04DF
:101544004130F500EE30F400F40BA62AF50BA62A80
:101554000000831203131F151F19B12AB22AAE2AE1
:101564001F151E08F300831603131E08F20008005B
:10157400F60076080F39F4007608F039F500831286
:10158400031309157508F30004300310F30CFF3E30
:10159400031DC72A73080A128A15F2210A128A1532
:1015A4008312031389140630F300F30BD72A0000C7
:1015B40083120313891074080A128A15F2210A127D
:1015C4008A158312031389140630F300F30BE82AF7
:1015D40000008312031389100800720873040319AE
:1015E400F42AF52A242BF701F70A032B0130031000
:1015F400F20DF30DFF3E031DF92A0130F6007608C3
:10160400F707F31F062B072BF82A73087502031D2F
:101614000D2B72087402031C102B112B172B72084C
:10162400F4027308031CF503F50201300310F30CF4
:10163400F20CFF3E031D182B0130F702031D232B70
:10164400242B072B7508F3007408F2000800F70137
:10165400F801720873040319302B312B682BF9013C
:10166400F90A3F2B01300310F20DF30DFF3E031D69
:10167400352B0130F6007608F907F31F422B432B74
:10168400342B01300310F70DF80DFF3E031D442BDE
:1016940073087502031D502B72087402031C532B2C
:1016A400542B5B2B7208F4027308031CF503F50238
:1016B400771401300310F30CF20CFF3E031D5C2B76
:1016C4000130F902031D672B682B432B7808F300C4
:1016D4007708F2000800831603138801F930F60036
:1016E4007608890500300A128A15F2210A128A1531
:1016F4008230F700DD30F600F60B7E2BF70B7E2BE5
:10170400832B03300A128A15B0210A128A1521305C
:10171400F7007630F600F60B8D2BF70B8D2B0000BF
:1017240003300A128A15B0210A128A154130F700D3
:10173400EE30F600F60B9C2BF70B9C2B00000330CD
:101744000A128A15B0210A128A1502300A128A1561
:10175400B0210A128A1502300A128A15B0210A121F
:101764008A1508300A128A15B0210A128A15003027
:101774000A128A15B0210A128A150C300A128A1527
:10178400B0210A128A1500300A128A15B0210A12F1
:101794008A1506300A128A15B0210A128A15080021
:1017A400031083120313680D690DEF006F08031D06
:1017B400DC2BDD2BE62B0030E9000030E8000030A4
:1017C400E7000030E600492C6608EA006708EB00F1
:1017D4006808EC006908ED001F300310ED0CEC0CF8
:1017E400EB0CEA0CFF3E031DEF2B6A08EE00E81732
:1017F400FF30E605FF30E705FF30E8050030E90576
:101804009630EF02EF1F072C082C222C6F08803A29
:10181400973E03180E2C0F2C102CDD2B01300310D7
:10182400E90CE80CE70CE60CFF3E031D112C01301B
:10183400EA006A08EF07031D202C212C102C392CF8
:1018440020306F02031C272C282C342CDD2B013074
:10185400EA000310E60DE70DE80DE90DEA0B2B2C69
:101864000130EF026F08031D382C392C292C6E0827
:1018740003193D2C3E2C492CE609E709E809E9093E
:10188400E60A0319E70A0319E80A0319E90A080032
:101894000030720583120313A00000307305A10009
:1018A40080307405A2007F307505A300230822044C
:1018B40021042004031D5F2C602C682C0030F500EB
:1018C4000030F4000030F3000030F2000030760500
:1018D400A00000307705A10080307805A2007F3099
:1018E4007905A3002308220421042004031D7B2C72
:1018F4007C2C842C0030F9000030F8000030F70014
:101904000030F600F51F872C882CAC2C0030A0008A
:101914000030A1000030A2008030A3007208A002B1
:101924007308031C730F972C982CA1027408031CD2
:10193400740F9D2C9E2CA2027508031C750FA32CFA
:10194400A42CA3022308F5002208F4002108F300C4
:101954002008F200F91FAF2CB02CD42C0030A000CA
:101964000030A1000030A2008030A3007608A0025D
:101974007708031C770FBF2CC02CA1027808031C26
:10198400780FC52CC62CA2027908031C790FCB2C26
:10199400CC2CA3022308F9002208F8002108F70040
:1019A4002008F6008030F5068030F90679087502C3
:1019B400031DE62C78087402031DE62C77087302D5
:1019C400031DE62C760872020318E92CEA2CEC2C91
:1019D4000310ED2C0314080083120313A000200845
:1019E4000319F52CF62C0A2DF51FF92CFA2C0A2DC7
:1019F4007209A2007309A3007409A4007509A50063
:101A0400A20A0319A30A0319A40A0319A50A122D89
:101A14007508A5007408A4007308A3007208A20046
:101A24007508740473047204031D192D1A2D232DD3
:101A34000030F5000030F4000030F3000030F20014
:101A4400A72D9630A100332D0130F6007608A107AA
:101A540001300310A50CA40CA30CA20CFF3E031D23
:101A64002B2DFE302505031D382D392D262D552D02
:101A74000130F6007608A1070130A20700300318F0
:101A84000130A307003003180130A4070030031805
:101A94000130A50701300310A50CA40CA30CA20C63
:101AA400FF3E031D4D2DFF302505031D5A2D5B2DD3
:101AB4003A2D672D0130A1020130F6000310A20D6A
:101AC400A30DA40DA50DF60B602DA41B6A2D6B2D83
:101AD400712D023021020318702D712D5C2D2118F7
:101AE400742D752D7D2DFF30A205FF30A3057F30A9
:101AF400A405FF30A5050310A10C2108F600F70189
:101B0400F801F90118300310F60DF70DF80DF90D71
:101B1400FF3E031D852D7608A2047708A3047808E8
:101B2400A4047908A50420080319992D9A2D9F2D42
:101B3400F51F9D2D9E2D9F2DA5172508F500240822
:101B4400F4002308F3002208F200080083120313B0
:101B54003D088039CA003D08C2004207CC00BC1FC2
:101B6400B42DB52DB62D4C144C080319BA2DBB2D2C
:101B7400CB2D4C0A031DBF2DC02DC82D0030BD0038
:101B84000030BC000030BB000030BA00BC17BD01FF
:101B9400D32D0030BD000030BC000030BB0000304D
:101BA400BA0041088039CB004B084A060319DB2DE3
:101BB400DC2DDD2D4A174108C2004207CB00C01FAF
:101BC400E42DE52DE62D4B144B080319EA2DEB2DDE
:101BD400FB2D4B0A031DEF2DF02DF82D0030C10015
:101BE4000030C0000030BF000030BE00C017C1018B
:101BF400032E0030C1000030C0000030BF000030B0
:101C0400BE004C084B020318082E092E2F2E4A1F23
:101C14000C2E0D2E112E8030C2004208CA064C082C
:101C2400CD004B08CC004D08CB003A08CD003E084F
:101C3400BA004D08BE003B08CD003F08BB004D086C
:101C4400BF003C08CD004008BC004D08C0003D0862
:101C5400CD004108BD004D08C100CD014B08C200B4
:101C6400C3014308C5004C084202C400031CC50359
:101C74004508803AFF0080307F02031D432E1A304E
:101C84004402031C462E472E7E2E831203133D0866
:101C94003C043B043A04031D502E522E0130532EB3
:101CA4000030CD000030BD000030BC000030BB006F
:101CB4000030BA004B08CC00862E4D1C622E632ED9
:101CC4006A2E4D08C2000310420C0138CD006C2E60
:101CD4000310CD0C3A1C6F2E702E712ECD170130CF
:101CE400C2003D0DBD0CBC0CBB0CBA0CC20B732E58
:101CF4000130C2004208CC07831203134B084C0284
:101D0400031C852E862E5F2E4A1B892E8A2ED32EE7
:101D14004C08031D8E2E8F2E982E0030BD000030EF
:101D2400BC000030BB000030BA00FF2F3E08BA07E9
:101D34003F0803110318013E0319A12EBB074008F5
:101D440003110318013E0319A82EBC07410803110F
:101D54000318013E0319AF2EBD073D1CB22EB32E4E
:101D6400872F4D1CB62EB72EBE2E4D08C200031071
:101D7400420C0138CD00C02E0310CD0C3A1CC32EEA
:101D8400C42EC52ECD170130C2003D0DBD0CBC0CB8
:101D9400BB0CBA0CC20BC72E0130C2004208CC07E0
:101DA400872F3D08803AFF004108803A7F02031DD7
:101DB400E52E40083C02031DE52E3F083B02031DAF
:101DC400E52E3E083A020318E82EE92E412FFF3093
:101DD400C200FF30C300FF30C400FF30C5003E081E
:101DE400C6003F08C7004008C8004108C9003A08B7
:101DF400C6023B08031C3B0F002F012FC7023C08FF
:101E0400031C3C0F062F072FC8023D08031C3D0F7F
:101E14000C2F0D2FC9024608C20747080318470FA5
:101E2400142F152FC30748080318480F1A2F1B2F08
:101E3400C40749080318490AC5074508BD004408F2
:101E4400BC004308BB004208BA008030C20042080C
:101E5400CA06CD09CD0A4D08031D312F322F4F2F4D
:101E64000130BA07003003180130BB0700300318F3
:101E74000130BC07003003180130BD074F2F3E0866
:101E8400BA023F08031C3F0FBB024008031C400F6B
:101E9400BC024108031C410FBD023D083C043B0445
:101EA4003A04031D562F572F832F4D08031D5B2F14
:101EB4005C2F832F0030BD000030BC000030BB001D
:101EC4000030BA00FF2F0130C2000310BA0DBB0D61
:101ED400BC0DBD0DC20B672FCD1F712F722F732F39
:101EE4003A144D1C762F772F7A2F0314CD0D7C2FA7
:101EF4000310CD0D4C080319802F812F832F01303F
:101F0400CC02BC1F862F872F652FCB01CD1F8B2FB3
:101F14008C2F9A2F4D087F390319912F922F952FCB
:101F2400CB01CB0A9A2F3A1C982F992F9A2F922FD4
:101F34004B0803199E2F9F2FD32F0130BA0700306F
:101F440003180130BB07003003180130BC07003010
:101F540003180130BD073D1CB02FB12FD32F3A0811
:101F6400C2003B08C3003C08C4003D08C500013062
:101F7400C600450DC50CC40CC30CC20CC60BBB2F4C
:101F84004508BD004408BC004308BB004208BA0031
:101F94004C0A0319CE2FCF2FD32F0130C200420891
:101FA400CC074C0A0319D72FD82FDD2F4C08031D5B
:101FB400DC2FDD2FEB2F0030BD000030BC000030E3
:101FC400BB000030BA004C08031DE92FEA2FEB2FA9
:101FD400CA014C1CEE2FEF2FF12FBC17F52F7F30C9
:101FE400C2004208BC054C08C2000310420CBD00EC
:0C1FF400CA1FFD2FFE2FFF2FBD17080095
:08400000FF3FFF3FFF3FFF3FC0
:02400E00F23F7F
:00000001FF
