:060000000A128A110C280F
:10000800FE00030EF1000A08F2000A128A15A12C5C
:100018000A128A110F28FA0183120313EE018301D1
:100028000A128A11BC2D831203133B088039C500BC
:100038003B08C0004007CB00BA1F232824282528E6
:100048004B144B08031929282A2839284B0A031D61
:100058002E282F2837280030BB000030BA00003087
:10006800B9000030B800BA1741280030BB00003092
:10007800BA000030B9000030B8003F088039C0002D
:100088004008C5063F08C0004007CA00BE1F4D28EB
:100098004E284F284A144A0803195328542863281D
:1000A8004A0A031D5828592861280030BF0000302B
:1000B800BE000030BD000030BC00BE176B28003009
:1000C800BF000030BE000030BD000030BC004A0850
:1000D80003196F28702875284B08031D7428752884
:1000E8007E280030BB000030BA000030B900003074
:1000F800B8005B2B3808F3003E080A128A157824EA
:100108000A128A11740883120313D1007308D000ED
:100118005008C000C101C201C3014308C900420818
:10012800C8004108C7004008C6005108C000C10106
:10013800C201C3014308CF004208CE004108CD00E8
:100148004008CC003908F3003D080A128A157824C3
:100158000A128A11740883120313D1007308D0009D
:100168005008C000C101C201C3014008C6074108C8
:1001780003110318013E0319C228C70742080311D7
:100188000318013E0319C928C807430803110318B7
:10019800013E0319D028C9075108C000C101C20196
:1001A800C3014008CC07410803110318013E031995
:1001B800DE28CD07420803110318013E0319E5287C
:1001C800CE07430803110318013E0319EC28CF0793
:1001D8003A08F3003C080A128A1578240A128A1190
:1001E800740883120313D1007308D0005008C000AC
:1001F800C101C201C3014008C60741080311031821
:10020800013E03190829C707420803110318013ED4
:1002180003190F29C807430803110318013E0319DE
:100228001629C9075108C000C101C201C30140080D
:10023800CC07410803110318013E03192429CD07EF
:10024800420803110318013E03192B29CE0743085E
:1002580003110318013E03193229CF070830C000E3
:100268000310C60DC70DC80DC90DC00B34293908B8
:10027800F3003C080A128A1578240A128A117408B5
:1002880083120313D1007308D0005008C00051082E
:10029800C100C201C3014008C60741080311031881
:1002A800013E03195829C707420803110318013EE4
:1002B80003195F29C807430803110318013E0319EE
:1002C8006629C9073808F3003D080A128A157824F8
:1002D8000A128A11740883120313D1007308D0001C
:1002E8005008C0005108C100C201C3014008C60738
:1002F800410803110318013E03198329C70742085F
:1003080003110318013E03198A29C807430803117A
:100318000318013E03199129C9070830C0000310CA
:10032800C60DC70DC80DC90DC00B93293808F300B9
:100338003C080A128A1578240A128A117408831252
:100348000313D1007308D0005008C0005108C10041
:10035800C201C3014008C607410803110318013E42
:100368000319B729C707420803110318013E0319E7
:10037800BE29C807430803110318013E0319C529FC
:10038800C9073908F3003E080A128A1578240A12A8
:100398008A11740883120313D1007308D00050081F
:1003A800C0005108C100C201C3014008CC07410880
:1003B80003110318013E0319E229CD07420803116E
:1003C8000318013E0319E929CE074308031103184E
:1003D800013E0319F029CF073A08F3003D080A1235
:1003E8008A1578240A128A11740883120313D1001B
:1003F8007308D0005008C0005108C100C201C301F1
:100408004008CC07410803110318013E03190D2ABF
:10041800CD07420803110318013E0319142ACE0719
:10042800430803110318013E03191B2ACF073A0892
:10043800F3003E080A128A1578240A128A117408F1
:1004480083120313D1007308D0005008C00051086C
:10045800C100C201C30108300310C00DC10DC20D97
:10046800C30DFF3E031D302A4008CC074108031185
:100478000318013E0319412ACD0742080311031846
:10048800013E0319482ACE07430803110318013E09
:1004980003194F2ACF074608C0004708C10048087B
:1004A800C2004908C30018300310C30CC20CC10CA9
:1004B800C00CFF3E031D582A4008CC074108031111
:1004C8000318013E0319692ACD07420803110318CE
:1004D800013E0319702ACE07430803110318013E91
:1004E8000319772ACF070830C0000310C60DC70DBF
:1004F800C80DC90DC00B792A4B084A07C000C101B5
:10050800C10D4008823ED00041080318013EFF3E5D
:10051800D100AB2A0130C0000310CC0DCD0DCE0D9B
:10052800CF0DC00B902AC91F9A2A9B2A9C2A4C14CB
:100538000130C0000310C60DC70DC80DC90DC00B92
:100548009E2AFF30D0070318D10AFF30D107CE1FEB
:10055800AE2AAF2A8E2ACA01C91FB32AB42AD02AC2
:10056800FF304605C000FF304705C100FF30480591
:10057800C2007F304905C3004308420441044004D7
:100588000319C72AC82ACB2ACA01CA0AD02A4C1C6E
:10059800CE2ACF2AD02AC82A4A080319D42AD52A0B
:1005A800062B0130CC07003003180130CD0700308E
:1005B80003180130CE07003003180130CF074F1C55
:1005C800E62AE72A062B4C08C0004D08C1004E0851
:1005D800C2004F08C3000130C400430DC30CC20C55
:1005E800C10CC00CC40BF12A4308CF004208CE004E
:1005F8004108CD004008CC000130D0070318D10ACB
:100608000030D1075108803AFF0080307F02031D77
:100618000F2BFF305002031C122B132B1E2B7F3085
:1006280083120313CF008030CE000030CD0000309D
:10063800CC004F2B831203135108803AFF008030FF
:100648007F02031D292B0130500203182C2B2D2B60
:10065800392B003083120313CF000030CE00003056
:10066800CD000030CC00C5014F2B83120313500876
:10067800CB00FF30CC05FF30CD057F30CE050030F4
:10068800CF054B1C482B492B4A2BCE174B08C000D3
:100698000310400CCF004508C0004008CF044F08A5
:1006A800BB004E08BA004D08B9004C08B800080055
:1006B8008312031323088039F3002308A8002807AE
:1006C800F500A21F682B692B6A2B7514750803198E
:1006D8006E2B6F2B7F2B750A031D732B742B7C2BB2
:1006E8000030A3000030A2000030A1000030A000BC
:1006F800A217A301872B0030A3000030A20000300E
:10070800A1000030A00027088039F400740873069F
:1007180003198F2B902B912B73172708A8002807F4
:10072800F400A61F982B992B9A2B7414740803199C
:100738009E2B9F2BAF2B740A031DA32BA42BAC2B32
:100748000030A7000030A6000030A5000030A4004B
:10075800A617A701B72B0030A7000030A60000306D
:10076800A5000030A400750874020318BC2BBD2B2B
:10077800E32B731FC02BC12BC52B8030A800280882
:10078800F3067508F6007408F5007608F4002008EA
:10079800F6002408A0007608A4002108F600250821
:1007A800A1007608A5002208F6002608A20076080F
:1007B800A6002308F6002708A3007608A700F6017C
:1007C8007408A800A9012908AB0075082802AA0026
:1007D800031CAB032B08803AFF0080307F02031D07
:1007E800F72B1A302A02031CFA2BFB2B362C831208
:1007F80003132308220421042004031D042C062CBF
:100808000130072C0030F6000030A3000030A200B1
:100818000030A1000030A0007408F5003C2C761CC4
:10082800162C172C202C760883120313A80003100B
:10083800280C0138F600222C0310F60C831203133F
:10084800201C272C282C292CF6170130A800230D52
:10085800A30CA20CA10CA00CA80B2B2C0130A800F7
:100868002808F50774087502031C3B2C3C2C132C34
:10087800731B3F2C402C8D2C7508031D442C452CD4
:10088800502C003083120313A3000030A200003064
:10089800A1000030A000BB2D831203132408A00779
:1008A800250803110318013E03195B2CA10726082C
:1008B80003110318013E0319622CA207270803112C
:1008C8000318013E0319692CA307231C6C2C6D2CFB
:1008D800432D761C702C712C782C7608A8000310F8
:1008E800280C0138F6007A2C0310F60C201C7D2CFD
:1008F8007E2C7F2CF6170130A800230DA30CA20C28
:10090800A10CA00CA80B812C0130A8002808F50721
:10091800432D831203132308803AFF002708803AE7
:100928007F02031DA12C26082202031DA12C2508E5
:100938002102031DA12C240820020318A42CA52C95
:10094800FD2CFF30A800FF30A900FF30AA00FF30BF
:10095800AB002408AC002508AD002608AE00270827
:10096800AF002008AC022108031C210FBC2CBD2CB1
:10097800AD022208031C220FC22CC32CAE0223088E
:10098800031C230FC82CC92CAF022C08A8072D085C
:1009980003182D0FD02CD12CA9072E0803182E0FC1
:1009A800D62CD72CAA072F0803182F0AAB072B0819
:1009B800A3002A08A2002908A1002808A000803066
:1009C800A8002808F306F609F60A7608031DED2C98
:1009D800EE2C0B2D0130A007003003180130A107C1
:1009E800003003180130A207003003180130A307B4
:1009F8000B2D2408A0022508031C250FA102260898
:100A0800031C260FA2022708031C270FA302230892
:100A1800220421042004031D122D132D3F2D7608D6
:100A2800031D172D182D3F2D0030A3000030A20004
:100A38000030A1000030A000BB2D0130A800031039
:100A4800A00DA10DA20DA30DA80B232DF61F2D2D72
:100A58002E2D2F2D2014761C322D332D362D0314D8
:100A6800F60D382D0310F60D750803193C2D3D2D94
:100A78003F2D0130F502A21F422D432D212DF401F7
:100A8800F61F472D482D562D76087F3903194D2D11
:100A98004E2D512DF401F40A562D201C542D552DA0
:100AA800562D4E2D740803195A2D5B2D8F2D0130AC
:100AB800A007003003180130A107003003180130E7
:100AC800A207003003180130A307231C6C2D6D2DDD
:100AD8008F2D2008A8002108A9002208AA002308B1
:100AE800AB000130AC002B0DAB0CAA0CA90CA80C68
:100AF800AC0B772D2B08A3002A08A2002908A10017
:100B08002808A000750A03198A2D8B2D8F2D013016
:100B1800A8002808F507750A0319932D942D992D17
:100B28007508031D982D992DA72D0030A3000030BE
:100B3800A2000030A1000030A0007508031DA52DFB
:100B4800A62DA72DF301751CAA2DAB2DAD2DA2172F
:100B5800B12D7F30A8002808A2057508A800031049
:100B6800280CA300F31FB92DBA2DBB2DA31708001D
:100B78000A128A15FB230A128A110A128A150026FC
:100B88000A128A11A0308B0080308316031381006B
:100B9800870183120313071583120313EC01ED0178
:100BA80002300A128A1500250A128A117408831263
:100BB8000313ED007308EC004230B700CC30B600E8
:100BC800EB30B5000430B4006C08F3006D08F40095
:100BD8000030F41BFF30F500F60001300A128A15C8
:100BE80046270A128A11760883120313B300750880
:100BF800B2007408B1007308B0000A128A155424B0
:100C08000A128A11831203133308BF003208BE0088
:100C18003108BD003008BC004030BB008030BA004D
:100C28000030B9000030B8000A128A1117200A12E1
:100C38008A11831203133B08D5003A08D4003908F7
:100C4800D3003808D2000A128A15CE260A128A1151
:100C5800831203135308EB005208EA006A08EE00F7
:100C680068086D06031D3A2E67086C06031D3D2EA5
:100C78003E2E3F2ED02D6D08E8006C08E7006C086A
:100C8800F3006D08F4000030F41BFF30F500F600A7
:100C980001300A128A1546270A128A117608831229
:100CA8000313BF007508BE007408BD007308BC00BC
:100CB8003E30BB00F930BA00DB30B9002330B80051
:100CC8000A128A1117200A128A11831203133B0889
:100CD800D5003A08D4003908D3003808D2000A12DF
:100CE8008A15CE260A128A11831203135208E900C4
:100CF8000A128A1504240A128A1183120313690836
:100D0800E500E6016508A5006608A6000A128A1132
:100D1800C1260A128A11831203136C18942E952E79
:100D28009E2E0130F8008030F9000A128A157425C9
:100D38000A128A11F70101300A128A11A2270A122F
:100D48008A11831203136B08E6006A08E500031092
:100D5800E60CE50C0310E60CE50C0310E60CE50CBC
:100D68006508A5006608A6000A128A11C1260A129B
:100D78008A11D02D0A128A110C288312031326080F
:100D8800E0002508DF00E301E401E01BCC2ECE2EB5
:100D98000130CF2E0030DC005C08031DD42ED52E88
:100DA800DA2E6008DE005F08DD00152F5F09A70056
:100DB8006009A800A70A0319A80A2708DD0028085F
:100DC800DE00152F63082A3E84000A30F300003045
:100DD800F4005E08F6005D08F5000A128A153A2547
:100DE8000A128A117308303E83138000013083127F
:100DF8000313E3070318E40A0030E4070A30F3009A
:100E08000030F4005E08F6005D08F5000A128A1545
:100E1800BA250A128A11740883120313DE007308B4
:100E2800DD005D085E04031D1A2F1B2FE62E5C08EB
:100E380003191F2F202F2C2F63082A3E84002D30E2
:100E4800831380000130E3070318E40A0030E40745
:100E580063082A3E840083138001E101E201702FB8
:100E68002A3083120313A7006108A7026308270723
:100E7800A8002808FF3E840083130008A900610821
:100E88002A3E84002908800661082A3E840000085A
:100E9800A7002A30A8006108A80263082807A9004B
:100EA8002908FF3E8400270880062A30A700610829
:100EB800A70263082707A8002808FF3E8400000847
:100EC800A90061082A3E8400290880060130E1074C
:100ED8000318E20A0030E2070230F3000030F400A1
:100EE8006408F6006308F5000A128A1565260A12D6
:100EF8008A11831203136208803AA7007408803AA3
:100F08002702031D892F73086102031C8C2F8D2F64
:100F1800342F831203135F086004031D942F952F49
:100F2800982F3030AA00AB012A30F8000030F900C1
:100F38000A128A1574250A128A11080083120313EB
:100F4800A0002008031DA92FAA2FC92F7708803ECB
:100F5800A3002308F80004300310F80CFF3E031D1B
:100F6800B02F7808A10023080F39A20021080A121F
:100F78008A1511240A128A118312031322080A12ED
:100F88008A1511240A128A11EC2F20080319CD2F73
:100F9800CE2FEC2F7708C03EA3002308F8000430BA
:100FA8000310F80CFF3E031DD42F7808A100230876
:100FB8000F39A20021080A128A1511240A128A116F
:100FC8008312031322080A128A1511240A128A119D
:100FD8000800FF1BF72F83137F1883170008840A64
:100FE8000319FF0A080007308A000408840A8207E8
:080FF80000342E3435340034BE
:1017F6008130831203139F008030831603139F00EA
:10180600080000300A128A1511240A128A150130BE
:101816000A128A1511240A128A150800F600831680
:1018260003138801F930F400740889058312031341
:10183600091176080A128A1532240A128A158312A9
:10184600031389141A30F500F830F400F40B292C30
:10185600F50B292C00008312031389100800F300EE
:10186600731C362C372C3B2C8312031308163E2C84
:10187600831203130812F31C412C422C442C8816A5
:10188600452C8812731D482C492C4B2C08174C2CC0
:101896000813F31D4F2C502C522C8817532C8813E9
:1018A6000800803083120313B3063708A3003608F6
:1018B600A2003508A1003408A0003308A7003208AA
:1018C600A6003108A5003008A4000A128A115C237C
:1018D6000A128A15831203132308B3002208B200E2
:1018E6002108B1002008B000080083120313A400E9
:1018F600A001A1017308F500F6017508A20076089B
:10190600A300241C872C882C8E2C2208A0070318E1
:10191600A10A2308A10701300310A20DA30DFF3E63
:10192600031D8F2C0310A40C2408031D9B2C9C2C38
:10193600842C2108F4002008F30008000B1DA42CB9
:10194600A52CC42CFB30F00070088B057D3083126B
:10195600031381000130F0007008FA077A086E025E
:10196600031CB62CB72CB92C8716BD2CDF30F00023
:10197600700887050A307A02031CC22CC32CC42CBB
:10198600FA0172088A00710E8300FE0E7E0E0900AF
:10199600F70077080F39F5007708F039F60083125B
:1019A600031309157608F40004300310F40CFF3E07
:1019B600031DD82C74080A128A1532240A128A15B5
:1019C6008312031389140630F400F40BE82C00008C
:1019D60083120313891075080A128A1532240A1213
:1019E6008A158312031389140630F400F40BF92CBC
:1019F60000008312031389100800F7000130F50078
:101A0600770A072D0310F50DFF3E031D052D7508FA
:101A1600F6007608831603138504C730F5007508AB
:101A2600831203139F057708F50002300310F50DA6
:101A3600FF3E031D192D0310750DF60076089F0451
:101A46000730F6007D30F500F50B272DF60B272D18
:101A5600831203131F151F19312D322D2E2D1F151D
:101A66001E08F400831603131E08F300080073080B
:101A7600740403193F2D402D6F2DF801F80A4E2DE1
:101A860001300310F30DF40DFF3E031D442D01300C
:101A9600F7007708F807F41F512D522D432D7408CF
:101AA6007602031D582D73087502031C5B2D5C2DF1
:101AB600622D7308F5027408031CF603F602013062
:101AC6000310F40CF30CFF3E031D632D0130F802E6
:101AD600031D6E2D6F2D522D7608F4007508F30048
:101AE600080083120313A301A4019D2D2308780780
:101AF600A1007908A0000318A00AA31F832DA00344
:101B0600831203132008A2002208FF002108840084
:101B16000A128A11ED270A128A150A128A15CB248F
:101B26000A128A15013083120313A3070318A40AA5
:101B36000030A40723087807A1007908A00003183D
:101B4600A00AA31FA72DA003831203132008A20037
:101B56002208FF00210884000A128A11ED270A12C2
:101B66008A15003A031DB82DB92D792D0800831268
:101B76000313A101A201730874040319C32DC42D14
:101B8600FB2DA001A00AD22D01300310F30DF40D98
:101B9600FF3E031DC82D0130F7007708A007F41F8C
:101BA600D52DD62DC72D01300310A10DA20DFF3E58
:101BB600031DD72D74087602031DE32D73087502E5
:101BC600031CE62DE72DEE2D7308F5027408031CA1
:101BD600F603F602211401300310F40CF30CFF3E59
:101BE600031DEF2D0130A002031DFA2DFB2DD62D6E
:101BF6002208F4002108F300080083160313880165
:101C0600F930F7007708890500300A128A15322460
:101C16000A128A158230F800DD30F700F70B112E14
:101C2600F80B112E162E03300A128A1511240A12E9
:101C36008A152130F8007630F700F70B202EF80BC6
:101C4600202E000003300A128A1511240A128A1562
:101C56004130F800EE30F700F70B2F2EF80B2F2E41
:101C6600000003300A128A1511240A128A1502305E
:101C76000A128A1511240A128A1502300A128A15C6
:101C860011240A128A1508300A128A1511240A121A
:101C96008A1500300A128A1511240A128A150C3088
:101CA6000A128A1511240A128A1500300A128A1598
:101CB60011240A128A1506300A128A1511240A12EC
:101CC6008A15080083120313A101F41F6B2E6C2ED4
:101CD600732EF309F409F30A0319F40AA101A10A00
:101CE600F61F762E772E802EF509F609F50A0319CA
:101CF600F60A0130F7007708A106A201A3017308CE
:101D060074040319872E882EBF2EA001A00A962ED2
:101D160001300310F30DF40DFF3E031D8C2E013030
:101D2600F7007708A007F41F992E9A2E8B2E013004
:101D36000310A20DA30DFF3E031D9B2E7408760211
:101D4600031DA72E73087502031CAA2EAB2EB22EF6
:101D56007308F5027408031CF603F6022214013018
:101D66000310F40CF30CFF3E031DB32E0130A0024A
:101D7600031DBE2EBF2E9A2E21080319C32EC42E74
:101D8600C92EA209A309A20A0319A30A2308F4006B
:101D96002208F3000800031083120313540D550D97
:101DA600F8007808031DD82ED92EE22E0030D50073
:101DB6000030D4000030D3000030D200452F520846
:101DC600D6005308D7005408D8005508D9001F304C
:101DD6000310D90CD80CD70CD60CFF3E031DEB2EE6
:101DE6005608F700D417FF30D205FF30D305FF3071
:101DF600D4050030D5059630F802F81F032F042FBE
:101E06001E2F7808803A973E03180A2F0B2F0C2FA7
:101E1600D92E01300310D50CD40CD30CD20CFF3EB6
:101E2600031D0D2F0130D6005608F807031D1C2F81
:101E36001D2F0C2F352F20307802031C232F242F23
:101E4600302FD92E0130D6000310D20DD30DD40D6C
:101E5600D50DD60B272F0130F8027808031D342F35
:101E6600352F252F77080319392F3A2F452FD209F9
:101E7600D309D409D509D20A0319D30A0319D40AF6
:101E86000319D50A080083120313A40024080319B2
:101E96004D2F4E2F622FF61F512F522F622F73098F
:101EA600A6007409A7007509A8007609A900A60A64
:101EB6000319A70A0319A80A0319A90A6A2F76089B
:101EC600A9007508A8007408A7007308A60076087C
:101ED600750474047304031D712F722F7B2F003059
:101EE600F6000030F5000030F4000030F300FF2F5C
:101EF6009630A5008B2F0130A0002008A5070130E1
:101F06000310A90CA80CA70CA60CFF3E031D832FDB
:101F1600FE302905031D902F912F7E2FAD2F013006
:101F2600A0002008A5070130A607003003180130DD
:101F3600A707003003180130A80700300318013046
:101F4600A90701300310A90CA80CA70CA60CFF3E8C
:101F5600031DA52FFF302905031DB22FB32F922F86
:101F6600BF2F0130A5020130A0000310A60DA70D5A
:101F7600A80DA90DA00BB82FA81BC22FC32FC92FC0
:101F8600023025020318C82FC92FB42F2518CC2FCD
:101F9600CD2FD52FFF30A605FF30A7057F30A8052A
:101FA600FF30A9050310A50C2508A000A101A20178
:101FB600A30118300310A00DA10DA20DA30DFF3E25
:101FC600031DDD2F2008A6042108A7042208A80463
:101FD6002308A90424080319F12FF22FF72FF61F5F
:101FE600F52FF62FF72FA9172908F6002808F50070
:0A1FF6002708F4002608F300080095
:08400000FF3FFF3FFF3FFF3FC0
:02400E00F23F7F
:00000001FF
