:060000000A128A110E280D
:10000800FE00030EF0000408F1000A08F2000A12CC
:100018008A11392B0A128A111128FA018312031343
:10002800B301B401B501B601B701B801B901BA010C
:10003800BB01BC01BD01BE01BF01C001C1018301FB
:100048000A128A114F29F50183120313A31F2D28C1
:100058002E283B28A009A109A209A309A00A03196F
:10006800A10A0319A20A0319A30AF501F50AA71F91
:100078003E283F284E28A409A509A609A709A40ACD
:100088000319A50A0319A60A0319A70A0130F300E0
:100098007308F5060030F9000030F8000030F7006A
:1000A8000030F600230822042104200403195D28E7
:1000B8005E28AB28F401F40A6E280130F30003101F
:1000C800A00DA10DA20DA30DF30B63280130F300C1
:1000D8007308F407A31F7128722861280130F30000
:1000E8000310F60DF70DF80DF90DF30B742823081E
:1000F8002702031D892822082602031D89282108B2
:100108002502031D892820082402031C8C288D2819
:100118009C282008A4022108031C210FA5022208FC
:10012800031C220FA6022308031C230FA702761420
:1001380001300310A30CA20CA10CA00CFF3E031D60
:100148009D280130F402031DAA28AB2872287508DF
:100158000319AF28B028BB28F609F709F809F909E7
:10016800F60A0319F70A0319F80A0319F90A7908AC
:10017800A3007808A2007708A1007608A00008006C
:100188000F30F3007308831603138804F830F30064
:1001980073088605F7010730F30073088312860495
:1001A8000130F300770ADA280310F30DFF3E031D30
:1001B800D8287308FF3AF40074088605C330F400A1
:1001C800CD30F300F30BE628F40BE628F8010130F4
:1001D800F300780AF1280310F30DFF3E031DEF2802
:1001E8007308831203130805F6007608031DFD281B
:1001F800FE2837297A08031902290329372977089D
:10020800F30002300310F30DFF3E031D06290130F1
:100218007307F4007808740784000A128A119D2273
:100228000A128A11F500FA0130290130F300780A20
:100238001F290310F30DFF3E031D1D2973088312A8
:1002480003130805F6008230F400DD30F300F30BE9
:100258002B29F40B2B293029760803193429352941
:10026800192975084E29FA01FA0A0130F3007308B2
:10027800F80704307802031C42294329EB2801308F
:10028800F3007308F70703307702031C4C294D2944
:10029800CF28FF300800003083120313AB00013071
:1002A800AA00C230A9000030A8000A128A112B2225
:1002B8000A128A110A128A11C6210A128A110A120E
:1002C8008A11C4200A128A1183120313B2008129E9
:1002D80021300A128A11F5220A128A11942937301C
:1002E8000A128A117C230A128A1194291C300A12D4
:1002F8008A11F5220A128A1194293208B000B10134
:100308003108003A0319892994293008013A031958
:100318006C29043A031973290C3A03197A29942988
:100328008316031386148312031306080239BE00CA
:100338003D080319A029A2290130A32900303E0550
:100348000319A729A829AE2917300A128A11F522FC
:100358000A128A11831203133E08BD003F080319CD
:10036800B629B7296329BF0140300A128A11D02261
:100378000A128A1183120313BB01BC0163290A12F2
:100388008A110E28831603138801F930F7007708BD
:10039800890500300A128A1117230A128A1182303D
:1003A800F800DD30F700F70BD729F80BD729DC293F
:1003B80003300A128A115B230A128A112130F800CD
:1003C8007630F700F70BE629F80BE6290000033032
:1003D8000A128A115B230A128A114130F800EE30A2
:1003E800F700F70BF529F80BF529000003300A127E
:1003F8008A115B230A128A1102300A128A115B23BE
:100408000A128A1102300A128A115B230A128A110F
:1004180008300A128A115B230A128A1100300A1264
:100428008A115B230A128A110C300A128A115B2383
:100438000A128A1100300A128A115B230A128A11E1
:1004480006300A128A115B230A128A110800243026
:1004580083120313AC002C088316031398049030FE
:100468008312031398002808AC002908AD002A0855
:10047800AE002B08AF0006300310AC0DAD0DAE0D6D
:10048800AF0DFF3E031D402A2F08A3002E08A2002F
:100498002D08A1002C08A0000130A7003130A600CB
:1004A8002D30A5000030A4000A128A1127200A1254
:1004B8008A11831203132008FF3E83160313990041
:1004C8008B170B178C160800F70077080F39F50003
:1004D8007708F039F6008312031309157608F4003B
:1004E80004300310F40CFF3E031D752A74080A1229
:1004F8008A1117230A128A118312031389140630EA
:10050800F400F40B852A0000831203138910750880
:100518000A128A1117230A128A11831203138914E3
:100528000630F400F40B962A000083120313891096
:10053800080002308A000408840A820700342A343A
:1005480007340434013400340834053402342334C5
:10055800093406340334EE342834CD346D342B3466
:100568006734E7342C34EF346F34A234B3340134B5
:100578001534FF344434723420342B34FF34483477
:1005880065346C346C346F34203457346F347234BF
:100598006C3464342134003483120313A200A001A4
:1005A800A101E92A20082207F80078088400000839
:1005B8000A128A1168220A128A110130831203135F
:1005C800A0070318A10A0030A10720082207F80095
:1005D8007808840083130008031DF32AF42AD62A16
:1005E8000800F700F601092B7608770784000A123D
:1005F8008A119D220A128A110A128A117C230A1270
:100608008A110130F5007508F60776087707840027
:100618000A128A119D220A128A11003A031D152B0B
:10062800162BF82A0800F300731C1B2B1C2B202BFD
:10063800831203130816232B831203130812F31CC7
:10064800262B272B292B88162A2B8812731D2D2B36
:100658002E2B302B0817312B0813F31D342B352B79
:10066800372B8817382B88130800831203138C1E26
:100678003E2B3F2B522B3B08403E84001A08831325
:1006880080000130BB070318BC0A0030BC073B08D8
:10069800403E84008001BF01BF0A8C1272088A00A4
:1006A80071088400700E8300FE0E7E0E0900F600AD
:1006B800831603138801F930F4007408890583123E
:1006C8000313091176080A128A1117230A128A11CC
:1006D8008312031389141A30F500F830F400F40B70
:1006E800732BF50B732B000083120313891008007A
:1006F800F400BF30F30073088316031387058717C8
:1007080083120C1E882B892B842BEF30F30073087F
:080718008C057408990008002B
:08400000FF3FFF3FFF3FFF3FC0
:02400E00F23F7F
:00000001FF
