:020000000E28C8
:10000800FE00030EF4000408F5000A08F6007F0855
:10001800F7005B280F28F801F90183120313A501E3
:1000280083011628FE308316031385008601A0304D
:100038008B00863081000030831285180130A400BF
:100048002408031D282829285728230803192D28A0
:100058002E285728033083120313A2000830A1006A
:100068007630A000A00B3628A10B3628A20B362824
:100078003D28831203132408031D432844285528C8
:10008800230803194828492855280130A0002008CA
:10009800A50704302502031C522853285728A50118
:1000A80057280130A5022408A3001F280E280B1D7D
:1000B8005E285F288F280B110430831203138100F8
:1000C8000130F8070318F90A0030F9072508F0008D
:1000D8007007013E84009A20F1009A20F200790806
:1000E800803AF3007208803A7302031D7D28710874
:1000F8007802031C802881288F2883120313051C8B
:10010800862887288C28FE30F000700885058D2801
:100118000514F801F9017708FF0076088A007508C8
:100128008400740E8300FE0E7E0E090000308A00E3
:100138000408840A82070034103400341F34003461
:080148003E3400347B34003426
:08400000FF3FFF3FFF3FFF3FC0
:02400E00623F0F
:00000001FF
