:060000000A128A110E280D
:10000800FE00030EF1000408F2000A08F3000A12C9
:100018008A11262D0A128A111128F701F801F9010F
:1000280083136830840070300A128A11E7260A1296
:100038008A11A0308400B6300A128A11E7260A1203
:100048008A1183010A128A11E92A831203132B08E1
:1000580083160317C600831203132A08831603178F
:10006800C500C901CA01C61B3A283C2801303D28F1
:100078000030C2004208031D422843284828460889
:10008800C4004508C300AB28450983120313AC001C
:1000980083160317460983120313AD00AC0A03192C
:1000A800AD0A2C0883160317C300831203132D0807
:1000B80083160317C400AB284908903E84000A3011
:1000C80083120313A0000030A1008316031744080D
:1000D80083120313A3008316031743088312031321
:1000E800A2000A128A11A8250A128A118312031380
:1000F8002008303E83178000013083160317C90794
:100108000318CA0A0030CA070A3083120313A00072
:100118000030A10083160317440883120313A300B9
:1001280083160317430883120313A2000A128A11C5
:100138009A240A128A1183120313210883160317BB
:10014800C40083120313200883160317C30043084F
:100158004404031DB028B128602842080319B528B3
:10016800B628C2284908903E84002D3083178000A5
:100178000130C9070318CA0A0030CA074908903E67
:10018800840083178001C701C8012C29903083128D
:100198000313AC0083160317470883120313AC023A
:1001A800831603174908831203132C07AD002D0883
:1001B800FF3E840083170008AE0083160317470824
:1001C800903E8400831203132E08800683160317BB
:1001D8004708903E8400000883120313AC00903057
:1001E800AD0083160317470883120313AD02831665
:1001F80003174908831203132D07AE002E08FF3E8C
:1002080084002C0880069030AC008316031747083A
:1002180083120313AC0283160317490883120313CE
:100228002C07AD002D08FF3E84000008AE008316A1
:1002380003174708903E8400831203132E08800694
:10024800013083160317C7070318C80A0030C80708
:10025800023083120313A0000030A1008316031795
:100268004A0883120313A30083160317490883124D
:100278000313A2000A128A11E6230A128A118316AE
:1002880003174808803A83120313AC002108803A08
:100298002C02031D53292008831603174702031C49
:1002A80056295729CA288316031745084604031DEB
:1002B8005E295F29622930309000910190308312C5
:1002C8000313A3000130A4000A128A11E0240A12C1
:1002D8008A110800831203132908E3002808E200A2
:1002E800E601E701E31B79297B2901307C290030ED
:1002F800DF005F08031D8129822987296308E1003F
:100308006208E000C2296209AA006309AB00AA0AD0
:100318000319AB0A2A08E0002B08E100C229660885
:100328002D3E84000A30A0000030A1006108A3001F
:100338006008A2000A128A11A8250A128A118312DB
:1003480003132008303E831380000130E6070318AA
:10035800E70A0030E7070A30A0000030A100610872
:10036800A3006008A2000A128A119A240A128A11AC
:10037800831203132108E1002008E00060086104EB
:10038800031DC729C82993295F080319CC29CD293A
:10039800D92966082D3E84002D3083138000013052
:1003A800E6070318E70A0030E70766082D3E8400D1
:1003B80083138001E401E5011D2A2D308312031304
:1003C800AA006408AA0266082A07AB002B08FF3EA9
:1003D800840083130008AC0064082D3E84002C08B8
:1003E800800664082D3E84000008AA002D30AB006A
:1003F8006408AB0266082B07AC002C08FF3E84009B
:100408002A0880062D30AA006408AA0266082A076E
:10041800AB002B08FF3E84000008AC0064082D3EAA
:1004280084002C0880060130E4070318E50A003030
:10043800E5070230A0000030A1006708A3006608A5
:10044800A2000A128A11E6230A128A1183120313E0
:100458006508803AAA002108803A2A02031D362A34
:1004680020086402031C392A3A2AE129831203135B
:1004780062086304031D412A422A452A3030AD0030
:10048800AE012D300A128A118F260A128A1108002D
:1004980083120313A901A31F522A532A602AA00911
:1004A800A109A209A309A00A0319A10A0319A20A0A
:1004B8000319A30AA901A90AA71F632A642A732A90
:1004C800A409A509A609A709A40A0319A50A0319D5
:1004D800A60A0319A70A0130F4007408A906003017
:1004E800AD000030AC000030AB000030AA0023089B
:1004F8002204210420040319822A832AD02AA8016D
:10050800A80A932A0130F4000310A00DA10DA20D32
:10051800A30DF40B882A0130F4007408A807A31F60
:10052800962A972A862A0130F4000310AA0DAB0DEB
:10053800AC0DAD0DF40B992A23082702031DAE2A32
:1005480022082602031DAE2A21082502031DAE2A11
:1005580020082402031CB12AB22AC12A2008A402B6
:100568002108031C210FA5022208031C220FA60242
:100578002308031C230FA7022A1401300310A30C1D
:10058800A20CA10CA00CFF3E031DC22A0130A80238
:10059800031DCF2AD02A972A29080319D42AD52A35
:1005A800E02AAA09AB09AC09AD09AA0A0319AB0AE2
:1005B8000319AC0A0319AD0A2D08A3002C08A200E0
:1005C8002B08A1002A08A0000800A03083160313F6
:1005D800B60036088B048530B60036088104003032
:1005E80083120313B1000130B000C230AF000030F5
:1005F800AE000A128A116B250A128A110A128A1190
:1006080078230A128A11831203136F0803190D2B1A
:100618000E2B4F2B6D08A10001300A128A114F24AE
:100628000A128A11013083160313B60036088312A2
:100638000313ED0711306D02031C232B242B432BCE
:10064800A10101300A128A114F240A128A111730A7
:1006580083120313A3008030A4000A128A11E02435
:100668000A128A1183120313A10101300A128A1196
:100678004F240A128A1183120313ED01ED0A83161F
:10068800031320080A128A1137260A128A118312C4
:100698000313EC01EF016E080319532B542B072B9E
:1006A800A10100300A128A114F240A128A1178080F
:1006B80083120313AB007708AA000A128A112920B3
:1006C8000A128A11780883120313A9007708A80070
:1006D8000A128A116E210A128A1183120313EE017B
:1006E800072B0A128A110E28831603138801F93082
:1006F80083120313A1002108831603138905003010
:100708000A128A11B1260A128A118230831203133F
:10071800A200DD30A100A10B8F2BA20B8F2B033081
:100728000A128A116C260A128A11213083120313C5
:10073800A2007530A100A10B9F2BA20B9F2BA42B0D
:1007480003300A128A116C260A128A114130831268
:100758000313A200ED30A100A10BB02BA20BB02B0C
:10076800B52B03300A128A116C260A128A1102303C
:100778000A128A116C260A128A1102300A128A1188
:100788006C260A128A1108300A128A116C260A127B
:100798008A1100300A128A116C260A128A110C304A
:1007A8000A128A116C260A128A1100300A128A115A
:1007B8006C260A128A1106300A128A116C260A124D
:1007C8008A11080083120313A501A11FEC2BED2B3E
:1007D800F42BA009A109A00A0319A10AA501A50AD9
:1007E800A31FF72BF82B012CA209A309A20A0319AE
:1007F800A30A0130F4007408A506A601A701200881
:1008080021040319082C092C402CA401A40A172C34
:1008180001300310A00DA10DFF3E031D0D2C01306A
:10082800F4007408A407A11F1A2C1B2C0C2C0130EF
:100838000310A60DA70DFF3E031D1C2C2108230243
:10084800031D282C20082202031C2B2C2C2C332CB3
:100858002008A2022108031CA303A30226140130C6
:100868000310A10CA00CFF3E031D342C0130A40280
:10087800031D3F2C402C1B2C25080319442C452C08
:100888004A2CA609A709A60A0319A70A2708A1003E
:100898002608A000080083120313A3002308031DE1
:1008A800562C572C762C2108803EA6002608A2003C
:1008B80004300310A20CFF3E031D5D2C2208A40087
:1008C80026080F39A50024080A128A116C260A1274
:1008D8008A118312031325080A128A116C260A1238
:1008E8008A11992C230803197A2C7B2C992C21081E
:1008F800C03EA6002608A20004300310A20CFF3E4A
:10090800031D812C2208A40026080F39A5002408FD
:100918000A128A116C260A128A11831203132508F7
:100928000A128A116C260A128A110800831203130C
:10093800A501A601200821040319A32CA42CDB2C53
:10094800A401A40AB22C01300310A00DA10DFF3E92
:10095800031DA82C0130F4007408A407A11FB52CAE
:10096800B62CA72C01300310A50DA60DFF3E031DC4
:10097800B72C21082302031DC32C20082202031CC4
:10098800C62CC72CCE2C2008A2022108031CA303C6
:10099800A302251401300310A10CA00CFF3E031D77
:1009A800CF2C0130A402031DDA2CDB2CB62C260830
:1009B800A1002508A000080083120313A801A901BB
:1009C800092D28082307A6002408A5000318A50A4E
:1009D800A81FEF2CA503831203132508A7002708D7
:1009E800FF00260884000A128A1100260A128A11BA
:1009F8000A128A1137260A128A1101308312031348
:100A0800A8070318A90A0030A90728082307A60081
:100A18002408A5000318A50AA81F132DA5038312EF
:100A280003132508A7002708FF00260884000A12D8
:100A38008A1100260A128A11003A031D242D252D39
:100A4800E52C0800831203138C1E2B2D2C2D3D2D15
:100A58006C08A03E84001A08831380000130F0005F
:100A68007008EC076C08A03E84008001EF01EF0AD3
:100A78008C120B1D402D412D622D0130831603135E
:100A8800B4070318B50A0030B5070B110230350258
:100A9800723003193402031C522D532D5F2D01307F
:100AA800F7070318F80A0030F807B401B5018312F4
:100AB8000313EE01EE0A83308312810073088A0063
:100AC80072088400710E8300FE0E7E0E0900243029
:100AD80083120313B200320883160313980490306C
:100AE8008312031398002E08B2002F08B3003008B1
:100AF800B4003108B50006300310B20DB30DB40DC3
:100B0800B50DFF3E031D802D3508A3003408A20053
:100B18003308A1003208A0000130A7003130A60038
:100B28002D30A5000030A4000A128A114C220A12A6
:100B38008A11831203132008FF3E831603139900BA
:100B48008B170B178C160800831203132008210437
:100B58000319AF2DB02DDF2DF501F50ABE2D01309B
:100B68000310A00DA10DFF3E031DB42D0130F400AC
:100B78007408F507A11FC12DC22DB32D210823022A
:100B8800031DC82D20082202031CCB2DCC2DD22DED
:100B98002008A2022108031CA303A30201300310AA
:100BA800A10CA00CFF3E031DD32D0130F502031D3F
:100BB800DE2DDF2DC22D2308A1002208A000080089
:100C0000FF1B0A2E83137F1883170008840A031919
:100C1000FF0A080006308A000408840A82070034AC
:100C20002A340734043401340034083405340234DF
:100C30002334093406340334EE342834CD346D348F
:100C40002B346734E7342C34EF346F3420342034C1
:100C500020342034203420342034203420342034F4
:100C600020342034203420342034203400348312C3
:100C70000313A20022080F39A0002208F039A100B6
:100C800009152108F50004300310F50CFF3E031D83
:100C9000442E75080A128A11B1260A128A1183128B
:100CA000031389140630F500F50B542E000083124F
:100CB0000313891020080A128A11B1260A128A1118
:100CC0008312031389140630F500F50B652E00001E
:100CD000831203138910080083120313A0008316E4
:100CE00003138801F930F500750889058312031391
:100CF000091120080A128A11B1260A128A118312D8
:100D0000031389141A30F600F830F500F50B862E1F
:100D1000F60B862E0000831203138910080083123D
:100D20000313A000A101A52E21082007F6007608D4
:100D3000840000080A128A11D3260A128A1101308F
:100D4000F600760883120313A10721082007F60096
:100D50007608840083130008031DAF2EB02E942E56
:100D60000800F400741CB52EB62EBA2E831203139D
:100D70000816BD2E831203130812F41CC02EC12EB8
:100D8000C32E8816C42E8812741DC72EC82ECA2ED4
:100D90000817CB2E0813F41DCE2ECF2ED12E881778
:100DA000D22E88130800F500BF30F40074088316B3
:100DB00003138705871783120C1EDF2EE02EDB2E10
:100DC000EF30F40074088C05750899000800640081
:0E0DD0008001840A0406031900340406E82E8C
:08400000FF3FFF3FFF3FFF3FC0
:02400E00F23F7F
:00000001FF
