:100000000A128A11F92F00308A000408840A820734
:1000100000342A34073404340134003408340534FD
:0A002000023423340934063403349B
:100C52000A128A116D270A128A1183120313A50040
:100C62000A3025020318362E372E3E2E2408223E45
:100C72008400250883138000292E2A302506031DAF
:100C8200432E442E4E2E2408031D482E492E5F2E3D
:100C92000130A0002008A407292E23302506031DB9
:100CA200532E542E5F2E22082307A100A4012108EF
:100CB2000A128A1163260A128A11292E292E0A1271
:100CC2008A110028FD000F30F900790883120313FE
:100CD20088050730F900790886050A30F0000030EF
:100CE200F1007D08F900FA017908F2007A08F300B0
:100CF2000A128A1106270A128A117008FB000330B1
:100D02000310FB0DFF3E031D812E03107B0DFC0023
:100D12007C088312031388040A30F0000030F100CB
:100D22007D08F900FA017908F2007A08F3000A1244
:100D32008A11AD260A128A117008FB0003300310D3
:100D4200FB0DFF3E031DA02E03107B0DFC007C0853
:100D52008312031386040800F601F31FB12EB22E8C
:100D6200B92EF209F309F20A0319F30AF601F60A97
:100D7200F11FBC2EBD2EC22EF009F109F00A031993
:100D8200F10A700871040319C72EC82EF72EF50157
:100D9200F50AD62E01300310F00DF10DFF3E031DB2
:100DA200CC2E0130F4007408F507F11FD92EDA2E8B
:100DB200CB2E71087302031DE02E70087202031C11
:100DC200E32EE42EEA2E7008F2027108031CF303EC
:100DD200F30201300310F10CF00CFF3E031DEB2E69
:100DE2000130F502031DF62EF72EDA2E76080319CE
:100DF200FB2EFC2E012FF209F309F20A0319F30A62
:100E02007308F1007208F0000800F601F11F0A2FC2
:100E12000B2F122FF009F109F00A0319F10AF6015A
:100E2200F60AF31F152F162F1F2FF209F309F20AE4
:100E32000319F30A0130F4007408F606F701F80109
:100E4200700871040319262F272F5E2FF501F50A6A
:100E5200352F01300310F00DF10DFF3E031D2B2F36
:100E62000130F4007408F507F11F382F392F2A2FAB
:100E720001300310F70DF80DFF3E031D3A2F7108E4
:100E82007302031D462F70087202031C492F4A2F5A
:100E9200512F7008F2027108031CF303F302771456
:100EA20001300310F10CF00CFF3E031D522F0130F4
:100EB200F502031D5D2F5E2F392F76080319622F6D
:100EC200632F682FF709F809F70A0319F80A780857
:100ED200F1007708F00008000F30F0007008831668
:100EE20003138804F830F00070088605F401073017
:100EF200F0007008831286040130F000740A832F18
:100F02000310F00DFF3E031D812F7008FF3AF10020
:100F1200710886056230F1006530F000F00B8F2F0A
:100F2200F10B8F2F942FF5010130F000750A9B2FE2
:100F32000310F00DFF3E031D992F70088312031357
:100F42000805F3007308031DA72FA82FE12F260819
:100F52000319AC2FAD2FE12F7408F00002300310FB
:100F6200F00DFF3E031DB02F01307007F100750830
:100F7200710784000A128A1103200A128A11F200F0
:100F8200A601DA2F0130F000750AC92F0310F00D07
:100F9200FF3E031DC72F7008831203130805F300D9
:100FA2008230F100DD30F000F00BD52FF10BD52FA0
:100FB200DA2F73080319DE2FDF2FC32F7208F82FE1
:100FC200A601A60A0130F0007008F5070430750288
:100FD200031CEC2FED2F952F0130F0007008F40761
:100FE20003307402031CF62FF72F782FFF3008000E
:0E0FF20083120313A60183010A128A11292E0D
:08400000FF3FFF3FFF3FFF3FC0
:02400E00F23F7F
:00000001FF
