:100000000A128A11F92F00308A000408840A820734
:1000100000342A34073404340134003408340534FD
:0A002000023423340934063403349B
:100C88000F30831603138800860108000A128A11A0
:100C980044260A128A110A128A112C270A128A116A
:100CA80083120313A5000A30250203185C2E5D2E5B
:100CB800642E2408223E84002508831380004F2ECA
:100CC8002A302506031D692E6A2E742E2408031D5A
:100CD8006E2E6F2E852E0130A0002008A4074F2EFF
:100CE80023302506031D792E7A2E852E2208230708
:100CF800A100A40121080A128A1189260A128A1160
:100D08004F2E4F2E0A128A110028FD000F30F900CD
:100D180079088312031388050730F90079088605D6
:100D28000A30F0000030F1007D08F900FA01790876
:100D3800F2007A08F3000A128A1192270A128A111D
:100D48007008FB0003300310FB0DFF3E031DA72EA8
:100D580003107B0DFC007C088312031388040A30FF
:100D6800F0000030F1007D08F900FA017908F2007E
:100D78007A08F3000A128A11D3260A128A11700817
:100D8800FB0003300310FB0DFF3E031DC62E0310AE
:100D98007B0DFC007C088312031386040800F6010F
:100DA800F31FD72ED82EDF2EF209F309F20A031902
:100DB800F30AF601F60AF11FE22EE32EE82EF009F7
:100DC800F109F00A0319F10A700871040319ED2EEC
:100DD800EE2E1D2FF501F50AFC2E01300310F00D43
:100DE800F10DFF3E031DF22E0130F4007408F507E3
:100DF800F11FFF2E002FF12E71087302031D062F1D
:100E080070087202031C092F0A2F102F7008F202B3
:100E18007108031CF303F30201300310F10CF00C0A
:100E2800FF3E031D112F0130F502031D1C2F1D2F3E
:100E3800002F76080319212F222F272FF209F309F3
:100E4800F20A0319F30A7308F1007208F0000800A7
:100E5800F4010730F0007008831203138604013090
:100E6800F000740A392F0310F00DFF3E031D372FD1
:100E78007008FF3AF100710886056230F1006530AC
:100E8800F000F00B452FF10B452F4A2FF5010130EB
:100E9800F000750A512F0310F00DFF3E031D4F2F70
:100EA8007008831203130805F2007208031D5D2FF2
:100EB8005E2F7A2F26080319622F632F7A2F740862
:100EC800F00002300310F00DFF3E031D662F0130C5
:100ED8007007F1007508710784000A128A1103204F
:100EE8000A128A11F300A6017308912FA601A60A17
:100EF8000130F0007008F50704307502031C852FD7
:100F0800862F4B2F0130F0007008F407033074026D
:100F1800031C8F2F902F2D2FFF300800F601F11F93
:100F2800962F972F9E2FF009F109F00A0319F10A5D
:100F3800F601F60AF31FA12FA22FAB2FF209F3092E
:100F4800F20A0319F30A0130F4007408F606F701EF
:100F5800F801700871040319B22FB32FEA2FF501B5
:100F6800F50AC12F01300310F00DF10DFF3E031DEE
:100F7800B72F0130F4007408F507F11FC42FC52FEF
:100F8800B62F01300310F70DF80DFF3E031DC62FD5
:100F980071087302031DD22F70087202031CD52F2B
:100FA800D62FDD2F7008F2027108031CF303F30239
:100FB800771401300310F10CF00CFF3E031DDE2FF7
:100FC8000130F502031DE92FEA2FC52F7608031912
:100FD800EE2FEF2FF42FF709F809F70A0319F80A8B
:100FE8007808F1007708F000080083120313A601BF
:080FF80083010A128A114A2E3E
:08400000FF3FFF3FFF3FFF3FC0
:02400E00F23F7F
:00000001FF
