:060000000A128A110C280F
:10000800FE00030EF1000A08F2000A128A110F29F5
:100018000A128A110F28F901FA0183010A128A11BA
:10002800D928831603138801F930F7007708890562
:1000380000300A128A117A200A128A118230F800D6
:10004800DD30F700F70B2628F80B26282B2803307D
:100058000A128A119C200A128A112130F80076307F
:10006800F700F70B3528F80B3528000003300A1283
:100078008A119C200A128A114130F800EE30F700EC
:10008800F70B4428F80B4428000003300A128A11A1
:100098009C200A128A1102300A128A119C200A1224
:1000A8008A1102300A128A119C200A128A11083019
:1000B8000A128A119C200A128A1100300A128A1127
:1000C8009C200A128A110C300A128A119C200A12EA
:1000D8008A1100300A128A119C200A128A110630ED
:1000E8000A128A119C200A128A110800F300731C54
:1000F8007E287F28832883120313081686288312F4
:1001080003130812F31C89288A288C2888168D283E
:100118008812731D9028912893280817942808138B
:10012800F31D972898289A2888179B288813080071
:10013800F600831603138801F930F4007408890562
:1001480083120313091176080A128A117A200A12F7
:100158008A118312031389141A30F500F830F40059
:10016800F40BB428F50BB42800008312031389108C
:10017800080000308A000408840A820700342A3400
:100188000734043401340034083405340234233489
:10019800093406340334EE342834CD346D342B342A
:1001A8006734E7342C34EF346F340A128A1129216A
:1001B8000A128A110A128A1115200A128A11A0300D
:1001C8008B0080308316031381007A08F300033014
:1001D8000A128A11F5200A128A11E9280A128A11CC
:1001E8000C28F60076080D3E84000A128A11BD20FC
:1001F8000A128A118312031386007308F40003306D
:100208000310F40DFF3E031D04290310740DF500BF
:100218007508860408000B1D122913292229FB30B2
:10022800F00070088B050130F0007008FA07043000
:100238007A02031C202921292229FA0172088A003E
:10024800710E8300FE0E7E0E0900813083120313A7
:0C0258009F008030831603139F000800F5
:08400000FF3FFF3FFF3FFF3FC0
:02400E00F23F7F
:00000001FF
