:060000000A128A110E280D
:10000800FE00030EF6000408F7000A08F8000A12BA
:100018008A1126290A128A111128F001F101F20128
:10002800F301F40183120313B601B701B801B90152
:10003800BA01BB01BC01BD0183010A128A116B29F7
:1000480083120313A901A31F2A282B283828A009E3
:10005800A109A209A309A00A0319A10A0319A20A5E
:100068000319A30AA901A90AA71F3B283C284B2862
:10007800A409A509A609A709A40A0319A50A031929
:10008800A60A0319A70A0130F9007908A906003061
:10009800AD000030AC000030AB000030AA002308EF
:1000A80022042104200403195A285B28A828A8013F
:1000B800A80A6B280130F9000310A00DA10DA20DAC
:1000C800A30DF90B60280130F9007908A807A31FD0
:1000D8006E286F285E280130F9000310AA0DAB0DB9
:1000E800AC0DAD0DF90B712823082702031D8628D6
:1000F80022082602031D862821082502031D8628BA
:1001080020082402031C89288A2899282008A40288
:100118002108031C210FA5022208031C220FA60296
:100128002308031C230FA7022A1401300310A30C71
:10013800A20CA10CA00CFF3E031D9A280130A802B6
:10014800031DA728A8286F2829080319AC28AD285B
:10015800B828AA09AB09AC09AD09AA0A0319AB0A60
:100168000319AC0A0319AD0A2D08A3002C08A20034
:100178002B08A1002A08A0000800243083120313CA
:10018800B2003208831603139804903083120313C5
:1001980098002E08B2002F08B3003008B4003108C8
:1001A800B50006300310B20DB30DB40DB50DFF3E0A
:1001B800031DD6283508A3003408A2003308A1007F
:1001C8003208A0000130A7003130A6002D30A5006C
:1001D8000030A4000A128A1124200A128A118312FC
:1001E80003132008FF3E8316031399008B170B1780
:0401F8008C16080059
:1002000001308A000408840A820700342A34073443
:1002100004340134003408340534023423340934FE
:1002200006340334EE342834CD346D342B34673443
:10023000E7342C34EF346F344334693461346F3431
:1002400000346334693461346F340034831203132F
:100250008C1E2B292C29432970087207F50075087C
:1002600084001A08831380000130F0070318F10A94
:100270000030F10770087207F500750884008001EE
:10028000F301F30A8C1278088A0077088400760E4E
:100290008300FE0E7E0E090083120313A200A30149
:1002A0005D291C300A128A1184210A128A11013038
:1002B00083120313A1002108A30723082207840047
:1002C0000A128A1100210A128A11003A031D6929B3
:1002D0006A2951290800003083120313B10000304D
:1002E000B0002530AF008030AE000A128A11C12064
:1002F0000A128A1117300A128A114C210A128A1125
:100300007A290A128A110E2883120313A000BF3023
:10031000F900790883160313870587179529EF30AD
:10032000F90079088C052008990083120C1E992980
:060330009A298F29080044
:08400000FF3FFF3FFF3FFF3FC0
:02400E00F23F7F
:00000001FF
