:060000000A128A110E280D
:10000800FE00030EF1000408F2000A08F3000A12C9
:100018008A11AC2A0A128A111128F701F801F9018C
:1000280083120313B901BA01BB01BC01BD01BE01B2
:10003800BF01C001C101C201C301C401C501C6019C
:1000480083010A128A1128287F3083120313B6000D
:1000580036088316031386058312031386018B174C
:100068008530B600360883160313810400308312E6
:100078000313B1000130B000C230AF000030AE0051
:100088000A128A113F230A128A110A128A113E2281
:100098000A128A110A128A11B1210A128A118312CC
:1000A8000313B80072282330A0008030A1000A1280
:1000B8008A11DE230A128A11852807300A128A114A
:1000C80075240A128A1185281D30A0008030A100ED
:1000D8000A128A11DE230A128A1185283808B60006
:1000E800B7013708003A03197A2885283608013AF3
:1000F80003195728043A031961280C3A0319682888
:1001080085288316031386148312031344080319DE
:100118008E288F28DB2807304506031D942895284C
:100128009C2837300A128A117C230A128A11D72890
:100138001D30F40045300A128A11B1230A128A11BF
:10014800003A0319A828A928B02883120313861790
:10015800833081008B16D7282330F40045300A12EB
:100168008A11B1230A128A11003A0319BC28BD2842
:10017800C42845300A128A110B240A128A11D7287A
:100188001730F40045300A128A11B1230A128A1175
:10019800003A0319D028D128D7280A128A118924AD
:1001A8000A128A11D72883120313C101C40100302F
:1001B80086180130C3004308031DE328E4280C29EE
:1001C80042080319E828E9280C298230831203130E
:1001D800B700DD30B600B60BEF28B70BEF280030BC
:1001E8008312031386180130C3004308031DFD283A
:1001F800FE280C2942080319022903290C29173063
:10020800A0008030A1000A128A11DE230A128A1186
:10021800831203134308C2004E280A128A110E28BB
:1002280083120313A901A31F1A291B292829A0092E
:10023800A109A209A309A00A0319A10A0319A20A7C
:100248000319A30AA901A90AA71F2B292C293B29AD
:10025800A409A509A609A709A40A0319A50A031947
:10026800A60A0319A70A0130F4007408A906003089
:10027800AD000030AC000030AB000030AA0023080D
:1002880022042104200403194A294B299829A8018A
:10029800A80A5B290130F4000310A00DA10DA20DDE
:1002A800A30DF40B50290130F4007408A807A31F0C
:1002B8005E295F294E290130F4000310AA0DAB0D09
:1002C800AC0DAD0DF40B612923082702031D762917
:1002D80022082602031D762921082502031D7629F6
:1002E80020082402031C79297A2989292008A402D4
:1002F8002108031C210FA5022208031C220FA602B5
:100308002308031C230FA7022A1401300310A30C8F
:10031800A20CA10CA00CFF3E031D8A290130A802E3
:10032800031D972998295F29290803199C299D29C4
:10033800A829AA09AB09AC09AD09AA0A0319AB0A8D
:100348000319AC0A0319AD0A2D08A3002C08A20052
:100358002B08A1002A08A00008000F30F400740838
:10036800831603138804F830F40074088605831292
:100378000313A2010730F400740886040130F40066
:10038800220AC8290310F40DFF3E031DC62974086C
:10039800FF3AF500750886056230F5006530F4000F
:1003A800F40BD429F50BD429D92983120313A301FB
:1003B8000130F400230AE2290310F40DFF3E031D67
:1003C800E02974080805A1002108031DEC29ED297E
:1003D800262A79080319F129F229262A2208F40085
:1003E80002300310F40DFF3E031DF5290130740798
:1003F800F5002308750784000A128A110A230A12D5
:100408008A11A000F9011D2A0130F400230A0E2ADE
:100418000310F40DFF3E031D0C2A74080805A10003
:100428008230F500DD30F400F40B182AF50B182A99
:100438001D2A8312031321080319232A242A082AB0
:1004480020083D2AF901F90A0130F4007408A307CD
:1004580004302302031C312A322ADC290130F4003B
:100468007408A20703302202031C3B2A3C2ABE2937
:10047800FF300800831603138801F9308312031331
:10048800A100210883160313890500300A128A1176
:1004980053240A128A11823083120313A200DD301A
:1004A800A100A10B552AA20B552A03300A128A1162
:1004B80030240A128A11213083120313A2007530E6
:1004C800A100A10B652AA20B652A6A2A03300A1229
:1004D8008A1130240A128A11413083120313A200B0
:1004E800ED30A100A10B762AA20B762A7B2A0330D5
:1004F8000A128A1130240A128A1102300A128A1149
:1005080030240A128A1102300A128A1130240A127F
:100518008A1108300A128A1130240A128A1100300E
:100528000A128A1130240A128A110C300A128A110E
:1005380030240A128A1100300A128A1130240A1251
:100548008A1106300A128A1130240A128A11080008
:10055800831203138C1EB12AB22AC32A4108453ECE
:1005680084001A08831380000130F0007008C10766
:100578004108453E84008001C401C40A8C120B1D49
:10058800C62AC72AE32A0130F7070318F80A0030F9
:10059800F8070C307802363003197702031CD52A85
:1005A800D62AE02AF701F8017F30F00070088605A6
:1005B800DF30F00070088B05833081000B11730861
:1005C8008A0072088400710E8300FE0E7E0E0900F8
:10060000FF1B0A2B83137F1883170008840A031922
:10061000FF0A080003308A000408840A82070034B5
:100620002A340734043401340034083405340234E5
:100630002334093406340334EE342834CD346D3495
:100640002B346734E7342C34EF346F34A234B334B2
:1006500001341534FF3400344434723420342B34E4
:10066000FF340034483465346C346C346F342034D7
:1006700057346F3472346C34643421340034243091
:1006800083120313B20032088316031398049030C8
:100690008312031398002E08B2002F08B30030080D
:1006A000B4003108B50006300310B20DB30DB40D1F
:1006B000B50DFF3E031D542B3508A3003408A200DE
:1006C0003308A1003208A0000130A7003130A60095
:1006D0002D30A5000030A4000A128A1114210A123C
:1006E0008A11831203132008FF3E83160313990017
:1006F0008B170B178C16080083120313A200220815
:100700000F39A0002208F039A10009152108F500D1
:1007100004300310F50CFF3E031D892B75080A12E7
:100720008A1153240A128A11831203138914063082
:10073000F500F50B992B0000831203138910200894
:100740000A128A1153240A128A118312031389147C
:100750000630F500F50BAA2B000083120313891055
:10076000080083120313A000A101D12B21087407F4
:1007700084000A128A110A230A128A11F50021083C
:100780002007F6007608840000087506031DC92BB3
:10079000CA2BCF2B0130F5007508A107D12B0030F3
:1007A000DD2B21082007F50075088400831300085D
:1007B000031DDB2BDC2BB62B013008008312031347
:1007C000A201F92B22082007840021080318210A1E
:1007D000FF000A128A1100230A128A110A128A11D2
:1007E00075240A128A110130F60076088312031369
:1007F000A20722082007840021080318210AFF000D
:100800000A128A1100230A128A11003A031D092CC8
:100810000A2CE22B080083120313A500A301A401F4
:10082000242C23082507F6007608840000080A1205
:100830008A117C230A128A11013083120313A30741
:100840000318A40A0030A40723082507F600760839
:10085000840083130008031D2E2C2F2C112C08005C
:1008600083120313A000831603138801F930F500E7
:100870007508890583120313091120080A128A11C9
:1008800053240A128A118312031389141A30F600B2
:10089000F830F500F50B4A2CF60B4A2C00008312B9
:1008A000031389100800F400741C572C582C5C2C7E
:1008B0008312031308165F2C831203130812F41C0F
:1008C000622C632C652C8816662C8812741D692C8A
:1008D0006A2C6C2C08176D2C0813F41D702C712CCD
:1008E000732C8817742C88130800F500BF30F400AF
:1008F0007408831603138705871783120C1E812C37
:10090000822C7D2CEF30F40074088C05750899005A
:10091000080000300A128A1130240A128A110130AC
:0C0920000A128A1130240A128A11080001
:08400000FF3FFF3FFF3FFF3FC0
:02400E00F23F7F
:00000001FF
