:060000000A128A110E280D
:10000800FE00030EF7000408F8000A08F9000A12B7
:100018008A117B2C0A128A111128F001F101F201D0
:10002800F301F40183120313EC01ED01EE01EF017A
:100038008313A0308400C6300A128A11EF270A12EF
:100048008A1183010A128A112928A0308316031302
:10005800C60046088B048130C60046088104073074
:10006800C6004608831203139004FB30831603135B
:10007800C600460887050F30C600460883120313DA
:100088009704F93083160313920078308312031310
:10009800950012150A128A11F3240A128A110030E7
:1000A80083120313B2000130B100C230B000003037
:1000B800AF000A128A11A1260A128A110D30840093
:1000C8000A128A115D270A128A1183120313EF009C
:1000D8006F0883160313C600C7014608831203136B
:1000E800AC0083160313470883120313AD000A12EA
:1000F8008A118A210A128A110A128A11E6230A121F
:100108008A1183160313C8000530480203188D2886
:100118008E28B8280130C80248080D3E84000A120B
:100128008A115D270A128A1183120313EF00A401B2
:1001380000300A128A11CA250A128A11831203137F
:100148006F0883160313C600C701460883120313FA
:10015800AC0083160313470883120313AD000A1279
:100168008A118A210A128A1174080319BC28BD2829
:10017800E62883120313A40101300A128A11CA2542
:100188000A128A11113083120313A5008030A600C9
:100198000A128A115B260A128A1183120313A40118
:1001A80001300A128A11CA250A128A11831203130E
:1001B8006D08AD006C08AC000A128A118A210A1277
:1001C8008A11F40172080319EA28EB2833298312EB
:1001D80003136F0883160313C600C70183120313A2
:1001E8006D08831603134702031D002983120313A6
:1001F8006C088316031346020318032904290E29E1
:1002080083120313150803190A290B290E29013033
:100218009502322983126F0883160313C600C7019B
:100228004708831203136D02031D20298316031345
:100238004608831203136C02031823292429322940
:10024800F9301502031829292A2932290130831681
:100258000313C6004608831203139507F2017308B7
:100268000319372938294429831203136D08AA0072
:100278006C08A9000A128A116B220A128A11F3016A
:10028800710803194829492980288316031320086F
:10029800C9000530490203185229532982294908FF
:1002A80003195729582982290130C90249080D3EE6
:1002B80084000A128A115D270A128A118312031315
:1002C800EF00A40100300A128A11CA250A128A1105
:1002D800831203136F0883160313C600C701460869
:1002E80083120313AC008316031347088312031306
:1002F800AD000A128A118A210A128A11F1018312A9
:100308000313EE0180280A128A110E2883120313A0
:100318002D08E7002C08E600EA01EB01E71B952908
:100328009729013098290030E3006308031D9D29AF
:100338009E29A3296708E5006608E400DE29660906
:10034800AE006709AF00AE0A0319AF0A2E08E40031
:100358002F08E500DE296A08313E84000A30A00033
:100368000030A1006508A3006408A2000A128A11DF
:10037800DE260A128A11831203132008303E8313E3
:1003880080000130EA070318EB0A0030EB070A3057
:10039800A0000030A1006508A3006408A2000A12AA
:1003A8008A1115260A128A11831203132108E500FF
:1003B8002008E40064086504031DE329E429AF2943
:1003C80063080319E829E929F5296A08313E8400F8
:1003D8002D30831380000130EA070318EB0A003040
:1003E800EB076A08313E840083138001E801E901C4
:1003F800392A313083120313AE006808AE026A0846
:100408002E07AF002F08FF3E840083130008B000BA
:100418006808313E8400300880066808313E840050
:100428000008AE003130AF006808AF026A082F0735
:10043800B0003008FF3E84002E0880063130AE0040
:100448006808AE026A082E07AF002F08FF3E840036
:100458000008B0006808313E84003008800601308A
:10046800E8070318E90A0030E9070230A000003065
:10047800A1006B08A3006A08A2000A128A1161256C
:100488000A128A11831203136908803AAE00210800
:10049800803A2E02031D522A20086802031C552A9E
:1004A800562AFD298312031366086704031D5D2A73
:1004B8005E2A612A3030B100B2013130A500003027
:1004C800A6000A128A115B260A128A1108008312F2
:1004D80003132A08E4002908E300E701E801E41B04
:1004E800762A782A0130792A0030E0006008031D56
:1004F8007E2A7F2A842A6408E2006308E100BF2A72
:100508006309AB006409AC00AB0A0319AC0A2B08F9
:10051800E1002C08E200BF2A67082E3E84000A305A
:10052800A0000030A1006208A3006108A2000A121E
:100538008A11DE260A128A11831203132008303E1C
:10054800831380000130E7070318E80A0030E80742
:100558000A30A0000030A1006208A3006108A200D0
:100568000A128A1115260A128A1183120313210806
:10057800E2002008E10061086204031DC42AC52ABC
:10058800902A60080319C92ACA2AD62A67082E3E63
:1005980084002D30831380000130E7070318E80A30
:1005A8000030E80767082E3E840083138001E501C8
:1005B800E6011A2B2E3083120313AB006508AB0239
:1005C80067082B07AC002C08FF3E84008313000843
:1005D800AD0065082E3E84002D08800665082E3E75
:1005E80084000008AB002E30AC006508AC02670838
:1005F8002C07AD002D08FF3E84002B0880062E3006
:10060800AB006508AB0267082B07AC002C08FF3E5F
:1006180084000008AD0065082E3E84002D08800681
:100628000130E5070318E60A0030E6070230A000AB
:100638000030A1006808A3006708A2000A128A1106
:1006480061250A128A11831203136608803AAB00E7
:100658002108803A2B02031D332B20086502031C56
:10066800362B372BDE2A8312031363086404031D19
:100678003E2B3F2B422B3030AE00AF012E300A12FA
:100688008A11AD270A128A11080083120313AA01DE
:10069800A31F4F2B502B5D2BA009A109A209A30969
:1006A800A00A0319A10A0319A20A0319A30AAA0195
:1006B800AA0AA71F602B612B702BA409A509A609FC
:1006C800A709A40A0319A50A0319A60A0319A70A60
:1006D8000130A8002808AA060030AE000030AD009E
:1006E8000030AC000030AB002308220421042004B1
:1006F80003197F2B802BCD2BA901A90A902B013040
:10070800A8000310A00DA10DA20DA30DA80B852B09
:100718000130A8002808A907A31F932B942B832B2B
:100728000130A8000310AB0DAC0DAD0DAE0DA80B3C
:10073800962B23082702031DAB2B22082602031D34
:10074800AB2B21082502031DAB2B20082402031C18
:10075800AE2BAF2BBE2B2008A4022108031C210FAF
:10076800A5022208031C220FA6022308031C230F3C
:10077800A7022B1401300310A30CA20CA10CA00C8F
:10078800FF3E031DBF2B0130A902031DCC2BCD2B2F
:10079800942B2A080319D12BD22BDD2BAB09AC09DA
:1007A800AD09AE09AB0A0319AC0A0319AD0A03195E
:1007B800AE0A2E08A3002D08A2002C08A1002B08C1
:1007C800A00008000F3083120313A000200883162E
:1007D80003138804F83083120313A000200883163B
:1007E8000313860583120313A4010730A000200811
:1007F80086040130A000240A032C0310A00DFF3E3C
:10080800031D012C2008FF3AA1002108860562304B
:1008180083120313A1006530A000A00B112CA10BBB
:10082800112C83120313A5010130A000250A1E2CE8
:100838000310A00DFF3E031D1C2C20080805A30073
:100848002308031D282C292C632C700803192D2C30
:100858002E2C632C2408A00002300310A00DFF3EAC
:10086800031D312C01302007A10025082107840031
:100878000A128A115D270A128A11A200F0015A2C65
:100888000130A000250A4A2C0310A00DFF3E031DCD
:10089800482C20080805A300823083120313A10006
:1008A800DD30A000A00B562CA10B562C831203138D
:1008B80023080319602C612C442C22087A2CF0019F
:1008C800F00A0130A0002008A50704302502031C07
:1008D8006E2C6F2C182C0130A0002008A4070330C0
:1008E8002402031C782C792CF92BFF3008000B1DEF
:1008F8007E2C7F2CD32C013083160313C4070318D6
:10090800C50A0030C5070230450272300319440297
:10091800031C8F2C902CCE2CC401C5018312031309
:100928000F08F6000E08F5000310F50DF60D03107C
:10093800F50DF60D7508EC007608ED008F018E01B7
:10094800F201F20A013083160313C2070318C30A1F
:100958000030C30700304302113003194202031C60
:10096800B62CB72CBB2CC201C301F401F40A013028
:10097800C0070318C10A0030C10700304102A13086
:1009880003194002031CC92CCA2CCE2CC001C1017A
:10099800F301F30A83308312031381000B118312CE
:1009A80003138C1ED82CD92CEA2C6E08A03E840088
:1009B8001A08831380000130F5007508EE076E08E9
:1009C800A03E84008001F101F10A8C1279088A00A6
:1009D80078088400770E8300FE0E7E0E09008316C9
:1009E80003138801F93083120313A4002408831623
:1009F8000313890500300A128A11CF270A128A11B7
:100A0800823083120313A500DD30A400A40B0A2D45
:100A1800A50B0A2D03300A128A1184270A128A119B
:100A2800213083120313A5007530A400A40B1A2DDE
:100A3800A50B1A2D1F2D03300A128A1184270A12BA
:100A48008A11413083120313A500ED30A400A40BD2
:100A58002B2DA50B2B2D302D03300A128A1184273C
:100A68000A128A1102300A128A1184270A128A117C
:100A780002300A128A1184270A128A1108300A12CF
:100A88008A1184270A128A1100300A128A118427CF
:100A98000A128A110C300A128A1184270A128A1142
:100AA80000300A128A1184270A128A1106300A12A3
:100AB8008A1184270A128A11080083120313A601D7
:100AC800A11F672D682D6F2DA009A109A00A031980
:100AD800A10AA601A60AA31F722D732D7C2DA209B7
:100AE800A309A20A0319A30A0130A4002408A60630
:100AF800A701A801200821040319832D842DBB2DEB
:100B0800A501A50A922D01300310A00DA10DFF3EED
:100B1800031D882D0130A4002408A507A11F952DC9
:100B2800962D872D01300310A70DA80DFF3E031D3C
:100B3800972D21082302031DA32D20082202031C40
:100B4800A62DA72DAE2D2008A2022108031CA30361
:100B5800A302271401300310A10CA00CFF3E031DB3
:100B6800AF2D0130A502031DBA2DBB2D962D2608E9
:100B78000319BF2DC02DC52DA709A809A70A031958
:100B8800A80A2808A1002708A00008008312031358
:100B9800A6002608031DD12DD22DF12D2408803E54
:100BA800A9002908A50004300310A50CFF3E031D69
:100BB800D82D2508A70029080F39A80027080A12E8
:100BC8008A1184270A128A118312031328080A1229
:100BD8008A1184270A128A11142E26080319F52D62
:100BE800F62D142E2408C03EA9002908A5000430BB
:100BF8000310A50CFF3E031DFC2D2508A70029089E
:100C08000F39A80027080A128A1184270A128A11A4
:100C18008312031328080A128A1184270A128A11D8
:100C2800080083120313A601A70120082104031951
:100C38001E2E1F2E562EA501A50A2D2E013003109B
:100C4800A00DA10DFF3E031D232E0130A400240892
:100C5800A507A11F302E312E222E01300310A60D1C
:100C6800A70DFF3E031D322E21082302031D3E2E31
:100C780020082202031C412E422E492E2008A202DF
:100C88002108031CA303A302261401300310A10C9E
:100C9800A00CFF3E031D4A2E0130A502031D552E50
:100CA800562E312E2708A1002608A000080083121E
:100CB8000313AA01AB01842E2A082507A8002608D9
:100CC800A7000318A70AAA1F6A2EA70383120313F3
:100CD8002708A9002908FF00280884000A128A1199
:100CE80053270A128A110A128A111A270A128A111C
:100CF800013083120313AA070318AB0A0030AB07AD
:100D08002A082507A8002608A7000318A70AAA1F6B
:100D18008E2EA703831203132708A9002908FF00B2
:100D2800280884000A128A1153270A128A11003AE5
:100D3800031D9F2EA02E602E08002430831203135B
:100D4800B3003308831603139804903083120313F7
:100D580098002F08B3003008B4003108B5003208F5
:100D6800B60006300310B30DB40DB50DB60DFF3E39
:100D7800031DB62E3608A3003508A2003408A100CA
:100D88003308A0000130A7003130A6002D30A5009F
:100D98000030A4000A128A1149230A128A11831208
:100DA80003132008FF3E8316031399008B170B17B4
:100DB8008C16080083120313200821040319E52E5A
:100DC800E62E152FA501A50AF42E01300310A00D5B
:100DD800A10DFF3E031DEA2E0130A4002408A5073B
:100DE800A11FF72EF82EE92E21082302031DFE2E3F
:100DF80020082202031C012F022F082F2008A2021C
:100E08002108031CA303A30201300310A10CA00CAA
:100E1800FF3E031D092F0130A502031D142F152FB6
:100E2800F82E2308A1002208A0000800831203134B
:100E3800A40024080F39A2002408F039A3000915DA
:100E48002308A10004300310A10CFF3E031D272F27
:100E580021080A128A11CF270A128A118312031352
:100E68008914053083120313A100A10B392F3C2FDD
:100E780083120313891022080A128A11CF270A1233
:100E88008A11831203138914053083120313A100F6
:100E9800A10B4C2F4F2F8312031389100800FF1B3F
:100EA8005D2F83137F1883170008840A0319FF0A2C
:100EB800080007308A000408840A820700342A34AC
:100EC800073404340134003408340534023423343C
:100ED800093406340334643478348C34A034203430
:100EE800203420342034203420342034203420345A
:100EF800203420342034203420342034203400346A
:100F080083120313A300831603138801F930831295
:100F18000313A10021088316031389058312031301
:100F2800091123080A128A11CF270A128A1183127B
:100F3800031389141A3083120313A200F730A10097
:100F4800A10BA42FA20BA42FA92F8312031389107E
:100F5800080083120313A300A401C32F2408230746
:100F6800A2002208840000080A128A15EA270A1239
:100F78008A11013083120313A2002208A40724084F
:100F88002307A2002208840083130008031DCD2F25
:100F9800CE2FB22F080083120313A000201CD52FD8
:100FA800D62FD82F0816D92F0812A01CDC2FDD2F1A
:100FB800DF2F8816E02F8812201DE32FE42FE62F5D
:100FC8000817E72F0813A01DEA2FEB2FED2F88171E
:100FD800EE2F8813080064008001840A04060319B0
:060FE80000340406F02FA6
:101FD40083120313A100BF30A0002008831603134B
:101FE4008705871783120C1EF82FF92FF42FEF3073
:0C1FF400A00020088C05210899000800BE
:08400000FF3FFF3FFF3FFF3FC0
:02400E00F23F7F
:00000001FF
